{"abi":[{"type":"constructor","inputs":[{"name":"initialFeeRate","type":"uint256","internalType":"uint256"},{"name":"owner","type":"address","internalType":"address"}],"stateMutability":"nonpayable"},{"type":"function","name":"MAX_FEE_RATE","inputs":[],"outputs":[{"name":"","type":"uint256","internalType":"uint256"}],"stateMutability":"view"},{"type":"function","name":"getFeeRate","inputs":[],"outputs":[{"name":"","type":"uint256","internalType":"uint256"}],"stateMutability":"view"},{"type":"function","name":"owner","inputs":[],"outputs":[{"name":"","type":"address","internalType":"address"}],"stateMutability":"view"},{"type":"function","name":"renounceOwnership","inputs":[],"outputs":[],"stateMutability":"nonpayable"},{"type":"function","name":"setFeeRate","inputs":[{"name":"newFeeRate","type":"uint256","internalType":"uint256"}],"outputs":[],"stateMutability":"nonpayable"},{"type":"function","name":"transferOwnership","inputs":[{"name":"newOwner","type":"address","internalType":"address"}],"outputs":[],"stateMutability":"nonpayable"},{"type":"event","name":"FeeRateUpdated","inputs":[{"name":"newFeeRate","type":"uint256","indexed":false,"internalType":"uint256"}],"anonymous":false},{"type":"event","name":"OwnershipTransferred","inputs":[{"name":"previousOwner","type":"address","indexed":true,"internalType":"address"},{"name":"newOwner","type":"address","indexed":true,"internalType":"address"}],"anonymous":false},{"type":"error","name":"FeeRateTooHigh","inputs":[]},{"type":"error","name":"OwnableInvalidOwner","inputs":[{"name":"owner","type":"address","internalType":"address"}]},{"type":"error","name":"OwnableUnauthorizedAccount","inputs":[{"name":"account","type":"address","internalType":"address"}]}],"bytecode":{"object":"0x608060405234801561000f575f80fd5b506040516107cf3803806107cf8339818101604052810190610031919061024e565b805f73ffffffffffffffffffffffffffffffffffffffff168173ffffffffffffffffffffffffffffffffffffffff16036100a2575f6040517f1e4fbdf7000000000000000000000000000000000000000000000000000000008152600401610099919061029b565b60405180910390fd5b6100b1816100fc60201b60201c565b506103e88211156100ee576040517fe30ce51e00000000000000000000000000000000000000000000000000000000815260040160405180910390fd5b8160018190555050506102b4565b5f805f9054906101000a900473ffffffffffffffffffffffffffffffffffffffff169050815f806101000a81548173ffffffffffffffffffffffffffffffffffffffff021916908373ffffffffffffffffffffffffffffffffffffffff1602179055508173ffffffffffffffffffffffffffffffffffffffff168173ffffffffffffffffffffffffffffffffffffffff167f8be0079c531659141344cd1fd0a4f28419497f9722a3daafe3b4186f6b6457e060405160405180910390a35050565b5f80fd5b5f819050919050565b6101d3816101c1565b81146101dd575f80fd5b50565b5f815190506101ee816101ca565b92915050565b5f73ffffffffffffffffffffffffffffffffffffffff82169050919050565b5f61021d826101f4565b9050919050565b61022d81610213565b8114610237575f80fd5b50565b5f8151905061024881610224565b92915050565b5f8060408385031215610264576102636101bd565b5b5f610271858286016101e0565b92505060206102828582860161023a565b9150509250929050565b61029581610213565b82525050565b5f6020820190506102ae5f83018461028c565b92915050565b61050e806102c15f395ff3fe608060405234801561000f575f80fd5b5060043610610060575f3560e01c806345596e2e14610064578063715018a61461008057806384e5eed01461008a5780638da5cb5b146100a857806392f6576e146100c6578063f2fde38b146100e4575b5f80fd5b61007e600480360381019061007991906103d8565b610100565b005b610088610185565b005b610092610198565b60405161009f9190610412565b60405180910390f35b6100b06101a1565b6040516100bd919061046a565b60405180910390f35b6100ce6101c8565b6040516100db9190610412565b60405180910390f35b6100fe60048036038101906100f991906104ad565b6101ce565b005b610108610252565b6103e8811115610144576040517fe30ce51e00000000000000000000000000000000000000000000000000000000815260040160405180910390fd5b806001819055507f208f1b468d3d61f0f085e975bd9d04367c930d599642faad06695229f3eadcd88160405161017a9190610412565b60405180910390a150565b61018d610252565b6101965f6102d9565b565b5f600154905090565b5f805f9054906101000a900473ffffffffffffffffffffffffffffffffffffffff16905090565b6103e881565b6101d6610252565b5f73ffffffffffffffffffffffffffffffffffffffff168173ffffffffffffffffffffffffffffffffffffffff1603610246575f6040517f1e4fbdf700000000000000000000000000000000000000000000000000000000815260040161023d919061046a565b60405180910390fd5b61024f816102d9565b50565b61025a61039a565b73ffffffffffffffffffffffffffffffffffffffff166102786101a1565b73ffffffffffffffffffffffffffffffffffffffff16146102d75761029b61039a565b6040517f118cdaa70000000000000000000000000000000000000000000000000000000081526004016102ce919061046a565b60405180910390fd5b565b5f805f9054906101000a900473ffffffffffffffffffffffffffffffffffffffff169050815f806101000a81548173ffffffffffffffffffffffffffffffffffffffff021916908373ffffffffffffffffffffffffffffffffffffffff1602179055508173ffffffffffffffffffffffffffffffffffffffff168173ffffffffffffffffffffffffffffffffffffffff167f8be0079c531659141344cd1fd0a4f28419497f9722a3daafe3b4186f6b6457e060405160405180910390a35050565b5f33905090565b5f80fd5b5f819050919050565b6103b7816103a5565b81146103c1575f80fd5b50565b5f813590506103d2816103ae565b92915050565b5f602082840312156103ed576103ec6103a1565b5b5f6103fa848285016103c4565b91505092915050565b61040c816103a5565b82525050565b5f6020820190506104255f830184610403565b92915050565b5f73ffffffffffffffffffffffffffffffffffffffff82169050919050565b5f6104548261042b565b9050919050565b6104648161044a565b82525050565b5f60208201905061047d5f83018461045b565b92915050565b61048c8161044a565b8114610496575f80fd5b50565b5f813590506104a781610483565b92915050565b5f602082840312156104c2576104c16103a1565b5b5f6104cf84828501610499565b9150509291505056fea26469706673582212209178f5e7dff02230414bf68fff13d5ceec03a0b75798664c744d0dacf85a76e564736f6c634300081a0033","linkReferences":{}},"methodIdentifiers":{"MAX_FEE_RATE()":"92f6576e","getFeeRate()":"84e5eed0","owner()":"8da5cb5b","renounceOwnership()":"715018a6","setFeeRate(uint256)":"45596e2e","transferOwnership(address)":"f2fde38b"},"id":91}