{"abi":[{"type":"constructor","inputs":[{"name":"_usdc","type":"address","internalType":"address"},{"name":"_feeManager","type":"address","internalType":"address"},{"name":"_lpManager","type":"address","internalType":"address"},{"name":"_protocolTreasury","type":"address","internalType":"address"},{"name":"_owner","type":"address","internalType":"address"}],"stateMutability":"nonpayable"},{"type":"function","name":"MAX_MILESTONES","inputs":[],"outputs":[{"name":"","type":"uint256","internalType":"uint256"}],"stateMutability":"view"},{"type":"function","name":"TOKEN_IMPLEMENTATION","inputs":[],"outputs":[{"name":"","type":"address","internalType":"address"}],"stateMutability":"view"},{"type":"function","name":"TOTAL_SUPPLY","inputs":[],"outputs":[{"name":"","type":"uint256","internalType":"uint256"}],"stateMutability":"view"},{"type":"function","name":"USDC","inputs":[],"outputs":[{"name":"","type":"address","internalType":"address"}],"stateMutability":"view"},{"type":"function","name":"approveMilestone","inputs":[{"name":"token","type":"address","internalType":"address"},{"name":"milestoneIndex","type":"uint256","internalType":"uint256"}],"outputs":[],"stateMutability":"nonpayable"},{"type":"function","name":"buy","inputs":[{"name":"token","type":"address","internalType":"address"},{"name":"usdcAmount","type":"uint256","internalType":"uint256"}],"outputs":[],"stateMutability":"nonpayable"},{"type":"function","name":"collectFees","inputs":[{"name":"token","type":"address","internalType":"address"}],"outputs":[],"stateMutability":"nonpayable"},{"type":"function","name":"create","inputs":[{"name":"params","type":"tuple","internalType":"struct IIDO.CreateParams","components":[{"name":"name","type":"string","internalType":"string"},{"name":"symbol","type":"string","internalType":"string"},{"name":"tokenURI","type":"string","internalType":"string"},{"name":"idoTokenAmount","type":"uint256","internalType":"uint256"},{"name":"tokenPrice","type":"uint256","internalType":"uint256"},{"name":"deadline","type":"uint256","internalType":"uint256"},{"name":"milestonePercentages","type":"uint256[]","internalType":"uint256[]"},{"name":"salt","type":"bytes32","internalType":"bytes32"}]}],"outputs":[{"name":"token","type":"address","internalType":"address"}],"stateMutability":"nonpayable"},{"type":"function","name":"failProject","inputs":[{"name":"token","type":"address","internalType":"address"}],"outputs":[],"stateMutability":"nonpayable"},{"type":"function","name":"feeManager","inputs":[],"outputs":[{"name":"","type":"address","internalType":"address"}],"stateMutability":"view"},{"type":"function","name":"getMilestones","inputs":[{"name":"token","type":"address","internalType":"address"}],"outputs":[{"name":"","type":"tuple[]","internalType":"struct IIDO.Milestone[]","components":[{"name":"percentage","type":"uint256","internalType":"uint256"},{"name":"isApproved","type":"bool","internalType":"bool"}]}],"stateMutability":"view"},{"type":"function","name":"graduate","inputs":[{"name":"token","type":"address","internalType":"address"}],"outputs":[],"stateMutability":"nonpayable"},{"type":"function","name":"lpManager","inputs":[],"outputs":[{"name":"","type":"address","internalType":"address"}],"stateMutability":"view"},{"type":"function","name":"owner","inputs":[],"outputs":[{"name":"","type":"address","internalType":"address"}],"stateMutability":"view"},{"type":"function","name":"projects","inputs":[{"name":"token","type":"address","internalType":"address"}],"outputs":[{"name":"creator","type":"address","internalType":"address"},{"name":"status","type":"uint8","internalType":"enum IIDO.Status"},{"name":"tokenPrice","type":"uint256","internalType":"uint256"},{"name":"idoSupply","type":"uint256","internalType":"uint256"},{"name":"idoSold","type":"uint256","internalType":"uint256"},{"name":"deadline","type":"uint256","internalType":"uint256"},{"name":"usdcRaised","type":"uint256","internalType":"uint256"},{"name":"usdcReleased","type":"uint256","internalType":"uint256"},{"name":"tokensRefunded","type":"uint256","internalType":"uint256"}],"stateMutability":"view"},{"type":"function","name":"protocolTreasury","inputs":[],"outputs":[{"name":"","type":"address","internalType":"address"}],"stateMutability":"view"},{"type":"function","name":"refund","inputs":[{"name":"token","type":"address","internalType":"address"},{"name":"tokenAmount","type":"uint256","internalType":"uint256"}],"outputs":[],"stateMutability":"nonpayable"},{"type":"function","name":"renounceOwnership","inputs":[],"outputs":[],"stateMutability":"nonpayable"},{"type":"function","name":"setFeeManager","inputs":[{"name":"_feeManager","type":"address","internalType":"address"}],"outputs":[],"stateMutability":"nonpayable"},{"type":"function","name":"setLpManager","inputs":[{"name":"_lpManager","type":"address","internalType":"address"}],"outputs":[],"stateMutability":"nonpayable"},{"type":"function","name":"setProtocolTreasury","inputs":[{"name":"_protocolTreasury","type":"address","internalType":"address"}],"outputs":[],"stateMutability":"nonpayable"},{"type":"function","name":"transferOwnership","inputs":[{"name":"newOwner","type":"address","internalType":"address"}],"outputs":[],"stateMutability":"nonpayable"},{"type":"event","name":"FeeManagerUpdated","inputs":[{"name":"newFeeManager","type":"address","indexed":true,"internalType":"address"}],"anonymous":false},{"type":"event","name":"Graduated","inputs":[{"name":"token","type":"address","indexed":true,"internalType":"address"}],"anonymous":false},{"type":"event","name":"LpManagerUpdated","inputs":[{"name":"newLpManager","type":"address","indexed":true,"internalType":"address"}],"anonymous":false},{"type":"event","name":"MilestoneApproved","inputs":[{"name":"token","type":"address","indexed":true,"internalType":"address"},{"name":"milestoneIndex","type":"uint256","indexed":true,"internalType":"uint256"},{"name":"usdcReleased","type":"uint256","indexed":false,"internalType":"uint256"}],"anonymous":false},{"type":"event","name":"OwnershipTransferred","inputs":[{"name":"previousOwner","type":"address","indexed":true,"internalType":"address"},{"name":"newOwner","type":"address","indexed":true,"internalType":"address"}],"anonymous":false},{"type":"event","name":"ProjectCreated","inputs":[{"name":"token","type":"address","indexed":true,"internalType":"address"},{"name":"creator","type":"address","indexed":true,"internalType":"address"},{"name":"name","type":"string","indexed":false,"internalType":"string"},{"name":"symbol","type":"string","indexed":false,"internalType":"string"},{"name":"tokenURI","type":"string","indexed":false,"internalType":"string"},{"name":"idoTokenAmount","type":"uint256","indexed":false,"internalType":"uint256"},{"name":"tokenPrice","type":"uint256","indexed":false,"internalType":"uint256"},{"name":"deadline","type":"uint256","indexed":false,"internalType":"uint256"}],"anonymous":false},{"type":"event","name":"ProjectFailed","inputs":[{"name":"token","type":"address","indexed":true,"internalType":"address"}],"anonymous":false},{"type":"event","name":"ProtocolTreasuryUpdated","inputs":[{"name":"newProtocolTreasury","type":"address","indexed":true,"internalType":"address"}],"anonymous":false},{"type":"event","name":"Refunded","inputs":[{"name":"token","type":"address","indexed":true,"internalType":"address"},{"name":"buyer","type":"address","indexed":true,"internalType":"address"},{"name":"tokensBurned","type":"uint256","indexed":false,"internalType":"uint256"},{"name":"usdcReturned","type":"uint256","indexed":false,"internalType":"uint256"}],"anonymous":false},{"type":"event","name":"TokensPurchased","inputs":[{"name":"token","type":"address","indexed":true,"internalType":"address"},{"name":"buyer","type":"address","indexed":true,"internalType":"address"},{"name":"usdcAmount","type":"uint256","indexed":false,"internalType":"uint256"},{"name":"tokenAmount","type":"uint256","indexed":false,"internalType":"uint256"}],"anonymous":false},{"type":"error","name":"AlreadyGraduated","inputs":[]},{"type":"error","name":"CreatorCannotRefund","inputs":[]},{"type":"error","name":"ExceedsRefundableAmount","inputs":[]},{"type":"error","name":"FailedDeployment","inputs":[]},{"type":"error","name":"IDOExceedsSupply","inputs":[]},{"type":"error","name":"IDONotActive","inputs":[]},{"type":"error","name":"IDONotFinished","inputs":[]},{"type":"error","name":"InsufficientBalance","inputs":[{"name":"balance","type":"uint256","internalType":"uint256"},{"name":"needed","type":"uint256","internalType":"uint256"}]},{"type":"error","name":"InsufficientPurchaseAmount","inputs":[]},{"type":"error","name":"InvalidDeadline","inputs":[]},{"type":"error","name":"InvalidIdoTokenAmount","inputs":[]},{"type":"error","name":"InvalidMilestoneIndex","inputs":[]},{"type":"error","name":"InvalidMilestonePercentages","inputs":[]},{"type":"error","name":"InvalidName","inputs":[]},{"type":"error","name":"InvalidSymbol","inputs":[]},{"type":"error","name":"InvalidTokenPrice","inputs":[]},{"type":"error","name":"MilestoneAlreadyApproved","inputs":[]},{"type":"error","name":"OwnableInvalidOwner","inputs":[{"name":"owner","type":"address","internalType":"address"}]},{"type":"error","name":"OwnableUnauthorizedAccount","inputs":[{"name":"account","type":"address","internalType":"address"}]},{"type":"error","name":"ProjectAlreadyFailed","inputs":[]},{"type":"error","name":"ProjectNotFailed","inputs":[]},{"type":"error","name":"ProjectNotFound","inputs":[]},{"type":"error","name":"ReentrancyGuardReentrantCall","inputs":[]},{"type":"error","name":"SafeERC20FailedOperation","inputs":[{"name":"token","type":"address","internalType":"address"}]},{"type":"error","name":"TooManyMilestones","inputs":[]},{"type":"error","name":"ZeroAddress","inputs":[]},{"type":"error","name":"ZeroAmount","inputs":[]}],"bytecode":{"object":"0x60c060405234801561000f575f80fd5b50604051615b29380380615b2983398181016040528101906100319190610584565b80600161005061004561042660201b60201c565b61044f60201b60201c565b5f01819055505f73ffffffffffffffffffffffffffffffffffffffff168173ffffffffffffffffffffffffffffffffffffffff16036100c6575f6040517f1e4fbdf70000000000000000000000000000000000000000000000000000000081526004016100bd919061060a565b60405180910390fd5b6100d58161045860201b60201c565b505f73ffffffffffffffffffffffffffffffffffffffff168573ffffffffffffffffffffffffffffffffffffffff160361013b576040517fd92e233d00000000000000000000000000000000000000000000000000000000815260040160405180910390fd5b5f73ffffffffffffffffffffffffffffffffffffffff168473ffffffffffffffffffffffffffffffffffffffff16036101a0576040517fd92e233d00000000000000000000000000000000000000000000000000000000815260040160405180910390fd5b5f73ffffffffffffffffffffffffffffffffffffffff168373ffffffffffffffffffffffffffffffffffffffff1603610205576040517fd92e233d00000000000000000000000000000000000000000000000000000000815260040160405180910390fd5b5f73ffffffffffffffffffffffffffffffffffffffff168273ffffffffffffffffffffffffffffffffffffffff160361026a576040517fd92e233d00000000000000000000000000000000000000000000000000000000815260040160405180910390fd5b5f73ffffffffffffffffffffffffffffffffffffffff168173ffffffffffffffffffffffffffffffffffffffff16036102cf576040517fd92e233d00000000000000000000000000000000000000000000000000000000815260040160405180910390fd5b8473ffffffffffffffffffffffffffffffffffffffff1660808173ffffffffffffffffffffffffffffffffffffffff16815250508360015f6101000a81548173ffffffffffffffffffffffffffffffffffffffff021916908373ffffffffffffffffffffffffffffffffffffffff1602179055508260025f6101000a81548173ffffffffffffffffffffffffffffffffffffffff021916908373ffffffffffffffffffffffffffffffffffffffff1602179055508160035f6101000a81548173ffffffffffffffffffffffffffffffffffffffff021916908373ffffffffffffffffffffffffffffffffffffffff1602179055506040516103cf90610519565b604051809103905ff0801580156103e8573d5f803e3d5ffd5b5073ffffffffffffffffffffffffffffffffffffffff1660a08173ffffffffffffffffffffffffffffffffffffffff16815250505050505050610623565b5f7f9b779b17422d0df92223018b32b4d1fa46e071723d6817e2486d003becc55f005f1b905090565b5f819050919050565b5f805f9054906101000a900473ffffffffffffffffffffffffffffffffffffffff169050815f806101000a81548173ffffffffffffffffffffffffffffffffffffffff021916908373ffffffffffffffffffffffffffffffffffffffff1602179055508173ffffffffffffffffffffffffffffffffffffffff168173ffffffffffffffffffffffffffffffffffffffff167f8be0079c531659141344cd1fd0a4f28419497f9722a3daafe3b4186f6b6457e060405160405180910390a35050565b61257f806135aa83390190565b5f80fd5b5f73ffffffffffffffffffffffffffffffffffffffff82169050919050565b5f6105538261052a565b9050919050565b61056381610549565b811461056d575f80fd5b50565b5f8151905061057e8161055a565b92915050565b5f805f805f60a0868803121561059d5761059c610526565b5b5f6105aa88828901610570565b95505060206105bb88828901610570565b94505060406105cc88828901610570565b93505060606105dd88828901610570565b92505060806105ee88828901610570565b9150509295509295909350565b61060481610549565b82525050565b5f60208201905061061d5f8301846105fb565b92915050565b60805160a051612f3c61066e5f395f8181610ea6015261128401525f81816108d4015281816113420152818161192c0152818161199a01528181611c6f01526122b20152612f3c5ff3fe608060405234801561000f575f80fd5b5060043610610140575f3560e01c806389a30271116100b6578063b906f15a1161007a578063b906f15a14610342578063c81ed0e314610360578063cce7ec131461037c578063d0fb020314610398578063f2fde38b146103b6578063ff6d8d05146103d257610140565b806389a30271146102b05780638b811981146102ce5780638da5cb5b146102ea578063902d55a514610308578063a480ca791461032657610140565b806352f0abc61161010857806352f0abc6146101e6578063715018a6146102025780637a1b05f01461020c5780637cc885131461023c578063803db96d1461025a578063840e78fd1461027857610140565b80630c5a61f81461014457806322a4e42d14610160578063410085df14610190578063472d35b9146101ac5780634c05abeb146101c8575b5f80fd5b61015e60048036038101906101599190612680565b6103ee565b005b61017a60048036038101906101759190612680565b6104e1565b60405161018791906127b2565b60405180910390f35b6101aa60048036038101906101a591906127fc565b61059d565b005b6101c660048036038101906101c19190612680565b61098f565b005b6101d0610a82565b6040516101dd9190612849565b60405180910390f35b61020060048036038101906101fb9190612680565b610a87565b005b61020a610bec565b005b61022660048036038101906102219190612885565b610bff565b60405161023391906128db565b60405180910390f35b610244611282565b60405161025191906128db565b60405180910390f35b6102626112a6565b60405161026f91906128db565b60405180910390f35b610292600480360381019061028d9190612680565b6112cb565b6040516102a799989796959493929190612967565b60405180910390f35b6102b8611340565b6040516102c591906128db565b60405180910390f35b6102e860048036038101906102e39190612680565b611364565b005b6102f2611457565b6040516102ff91906128db565b60405180910390f35b61031061147e565b60405161031d9190612849565b60405180910390f35b610340600480360381019061033b9190612680565b61148e565b005b61034a611543565b60405161035791906128db565b60405180910390f35b61037a600480360381019061037591906127fc565b611568565b005b610396600480360381019061039191906127fc565b611a37565b005b6103a0611d89565b6040516103ad91906128db565b60405180910390f35b6103d060048036038101906103cb9190612680565b611dae565b005b6103ec60048036038101906103e79190612680565b611e32565b005b6103f6611f99565b5f73ffffffffffffffffffffffffffffffffffffffff168173ffffffffffffffffffffffffffffffffffffffff160361045b576040517fd92e233d00000000000000000000000000000000000000000000000000000000815260040160405180910390fd5b8060035f6101000a81548173ffffffffffffffffffffffffffffffffffffffff021916908373ffffffffffffffffffffffffffffffffffffffff1602179055508073ffffffffffffffffffffffffffffffffffffffff167fb141872ee67913e1bc546464f29b6b07a65159d45c6af64fdecf8b4129157faf60405160405180910390a250565b606060055f8373ffffffffffffffffffffffffffffffffffffffff1673ffffffffffffffffffffffffffffffffffffffff1681526020019081526020015f20805480602002602001604051908101604052809291908181526020015f905b82821015610592578382905f5260205f2090600202016040518060400160405290815f8201548152602001600182015f9054906101000a900460ff1615151515815250508152602001906001019061053f565b505050509050919050565b6105a5612020565b5f81036105de576040517f1f2a200500000000000000000000000000000000000000000000000000000000815260040160405180910390fd5b5f60045f8473ffffffffffffffffffffffffffffffffffffffff1673ffffffffffffffffffffffffffffffffffffffff1681526020019081526020015f209050600280811115610631576106306128f4565b5b815f0160149054906101000a900460ff166002811115610654576106536128f4565b5b1461068b576040517f33f9512700000000000000000000000000000000000000000000000000000000815260040160405180910390fd5b805f015f9054906101000a900473ffffffffffffffffffffffffffffffffffffffff1673ffffffffffffffffffffffffffffffffffffffff163373ffffffffffffffffffffffffffffffffffffffff1603610712576040517f5dcaaad200000000000000000000000000000000000000000000000000000000815260040160405180910390fd5b5f816006015482600501546107279190612a1f565b90505f8103610762576040517f1f2a200500000000000000000000000000000000000000000000000000000000815260040160405180910390fd5b5f826007015483600301546107779190612a1f565b9050808411156107b3576040517f1c289e3c00000000000000000000000000000000000000000000000000000000815260040160405180910390fd5b5f8183866107c19190612a52565b6107cb9190612ac0565b90505f8103610806576040517f1f2a200500000000000000000000000000000000000000000000000000000000815260040160405180910390fd5b84846007015f8282546108199190612af0565b9250508190555080846006015f8282546108339190612af0565b925050819055506108673330878973ffffffffffffffffffffffffffffffffffffffff16612042909392919063ffffffff16565b8573ffffffffffffffffffffffffffffffffffffffff166342966c68866040518263ffffffff1660e01b81526004016108a09190612849565b5f604051808303815f87803b1580156108b7575f80fd5b505af11580156108c9573d5f803e3d5ffd5b5050505061091833827f000000000000000000000000000000000000000000000000000000000000000073ffffffffffffffffffffffffffffffffffffffff166120979092919063ffffffff16565b3373ffffffffffffffffffffffffffffffffffffffff168673ffffffffffffffffffffffffffffffffffffffff167f88808afc48888c0e3ec9c545474e31ce16f177be8d0c8ba3922274893615750e8784604051610977929190612b23565b60405180910390a35050505061098b6120ea565b5050565b610997611f99565b5f73ffffffffffffffffffffffffffffffffffffffff168173ffffffffffffffffffffffffffffffffffffffff16036109fc576040517fd92e233d00000000000000000000000000000000000000000000000000000000815260040160405180910390fd5b8060015f6101000a81548173ffffffffffffffffffffffffffffffffffffffff021916908373ffffffffffffffffffffffffffffffffffffffff1602179055508073ffffffffffffffffffffffffffffffffffffffff167fe45f5e140399b0a7e12971ab020724b828fbed8ac408c420884dc7d1bbe506b460405160405180910390a250565b601481565b610a8f611f99565b5f60045f8373ffffffffffffffffffffffffffffffffffffffff1673ffffffffffffffffffffffffffffffffffffffff1681526020019081526020015f2090505f816001015403610b0c576040517f4c4f68ca00000000000000000000000000000000000000000000000000000000815260040160405180910390fd5b600280811115610b1f57610b1e6128f4565b5b815f0160149054906101000a900460ff166002811115610b4257610b416128f4565b5b03610b79576040517f6f734cd000000000000000000000000000000000000000000000000000000000815260040160405180910390fd5b6002815f0160146101000a81548160ff02191690836002811115610ba057610b9f6128f4565b5b02179055508173ffffffffffffffffffffffffffffffffffffffff167f61e7836a73a5e0e0f7fe6637955175baa154c4c78ba8672d950d83723185cc5c60405160405180910390a25050565b610bf4611f99565b610bfd5f612104565b565b5f610c08612020565b5f82805f0190610c189190612b56565b905003610c51576040517f430f13b300000000000000000000000000000000000000000000000000000000815260040160405180910390fd5b5f828060200190610c629190612b56565b905003610c9b576040517f04119bc400000000000000000000000000000000000000000000000000000000815260040160405180910390fd5b5f826080013503610cd8576040517ff083859200000000000000000000000000000000000000000000000000000000815260040160405180910390fd5b428260a0013511610d15576040517f769d11e400000000000000000000000000000000000000000000000000000000815260040160405180910390fd5b5f82606001351480610d3657506b033b2e3c9fd0803ce80000008260600135115b15610d6d576040517fed7398ed00000000000000000000000000000000000000000000000000000000815260040160405180910390fd5b5f828060c00190610d7e9190612bb8565b90501480610d9d57506014828060c00190610d999190612bb8565b9050115b15610dd4576040517f8a71996500000000000000000000000000000000000000000000000000000000815260040160405180910390fd5b5f805f90505b838060c00190610dea9190612bb8565b9050811015610e3557838060c00190610e039190612bb8565b82818110610e1457610e13612c1a565b5b9050602002013582610e269190612af0565b91508080600101915050610dda565b506127108114610e71576040517fffb90a5e00000000000000000000000000000000000000000000000000000000815260040160405180910390fd5b5f338460e00135604051602001610e89929190612cb5565b604051602081830303815290604052805190602001209050610ecb7f0000000000000000000000000000000000000000000000000000000000000000826121c5565b92508273ffffffffffffffffffffffffffffffffffffffff16635c6d8da185805f0190610ef89190612b56565b878060200190610f089190612b56565b898060400190610f189190612b56565b306040518863ffffffff1660e01b8152600401610f3b9796959493929190612d3a565b5f604051808303815f87803b158015610f52575f80fd5b505af1158015610f64573d5f803e3d5ffd5b505050506040518061012001604052803373ffffffffffffffffffffffffffffffffffffffff1681526020015f6002811115610fa357610fa26128f4565b5b815260200185608001358152602001856060013581526020015f81526020018560a0013581526020015f81526020015f81526020015f81525060045f8573ffffffffffffffffffffffffffffffffffffffff1673ffffffffffffffffffffffffffffffffffffffff1681526020019081526020015f205f820151815f015f6101000a81548173ffffffffffffffffffffffffffffffffffffffff021916908373ffffffffffffffffffffffffffffffffffffffff1602179055506020820151815f0160146101000a81548160ff02191690836002811115611087576110866128f4565b5b021790555060408201518160010155606082015181600201556080820151816003015560a0820151816004015560c0820151816005015560e0820151816006015561010082015181600701559050505f5b848060c001906110e89190612bb8565b90508110156111c85760055f8573ffffffffffffffffffffffffffffffffffffffff1673ffffffffffffffffffffffffffffffffffffffff1681526020019081526020015f206040518060400160405280878060c001906111499190612bb8565b8581811061115a57611159612c1a565b5b9050602002013581526020015f1515815250908060018154018082558091505060019003905f5260205f2090600202015f909190919091505f820151815f01556020820151816001015f6101000a81548160ff021916908315150217905550505080806001019150506110d8565b503373ffffffffffffffffffffffffffffffffffffffff168373ffffffffffffffffffffffffffffffffffffffff167f6eacd047ebbffc388c1d8d9edae16f36886043b6d5af7d7aeb41170b35528d9e86805f01906112279190612b56565b8880602001906112379190612b56565b8a80604001906112479190612b56565b8c606001358d608001358e60a0013560405161126b99989796959493929190612d98565b60405180910390a3505061127d6120ea565b919050565b7f000000000000000000000000000000000000000000000000000000000000000081565b60035f9054906101000a900473ffffffffffffffffffffffffffffffffffffffff1681565b6004602052805f5260405f205f91509050805f015f9054906101000a900473ffffffffffffffffffffffffffffffffffffffff1690805f0160149054906101000a900460ff16908060010154908060020154908060030154908060040154908060050154908060060154908060070154905089565b7f000000000000000000000000000000000000000000000000000000000000000081565b61136c611f99565b5f73ffffffffffffffffffffffffffffffffffffffff168173ffffffffffffffffffffffffffffffffffffffff16036113d1576040517fd92e233d00000000000000000000000000000000000000000000000000000000815260040160405180910390fd5b8060025f6101000a81548173ffffffffffffffffffffffffffffffffffffffff021916908373ffffffffffffffffffffffffffffffffffffffff1602179055508073ffffffffffffffffffffffffffffffffffffffff167f2e8a39c6c07092f42136c4c82d0761067356183b8dd74a98d16ad3f41130db2b60405160405180910390a250565b5f805f9054906101000a900473ffffffffffffffffffffffffffffffffffffffff16905090565b6b033b2e3c9fd0803ce800000081565b611496611f99565b60025f9054906101000a900473ffffffffffffffffffffffffffffffffffffffff1673ffffffffffffffffffffffffffffffffffffffff16633c9b45228260035f9054906101000a900473ffffffffffffffffffffffffffffffffffffffff166040518363ffffffff1660e01b8152600401611513929190612e12565b5f604051808303815f87803b15801561152a575f80fd5b505af115801561153c573d5f803e3d5ffd5b5050505050565b60025f9054906101000a900473ffffffffffffffffffffffffffffffffffffffff1681565b611570611f99565b5f60045f8473ffffffffffffffffffffffffffffffffffffffff1673ffffffffffffffffffffffffffffffffffffffff1681526020019081526020015f2090505f8160010154036115ed576040517f4c4f68ca00000000000000000000000000000000000000000000000000000000815260040160405180910390fd5b600280811115611600576115ff6128f4565b5b815f0160149054906101000a900460ff166002811115611623576116226128f4565b5b0361165a576040517f6f734cd000000000000000000000000000000000000000000000000000000000815260040160405180910390fd5b6001600281111561166e5761166d6128f4565b5b815f0160149054906101000a900460ff166002811115611691576116906128f4565b5b036116c8576040517fe6a0d45f00000000000000000000000000000000000000000000000000000000815260040160405180910390fd5b5f60055f8573ffffffffffffffffffffffffffffffffffffffff1673ffffffffffffffffffffffffffffffffffffffff1681526020019081526020015f20905080805490508310611745576040517ffdf4d87300000000000000000000000000000000000000000000000000000000815260040160405180910390fd5b80838154811061175857611757612c1a565b5b905f5260205f2090600202016001015f9054906101000a900460ff16156117ab576040517f535ed39000000000000000000000000000000000000000000000000000000000815260040160405180910390fd5b60018184815481106117c0576117bf612c1a565b5b905f5260205f2090600202016001015f6101000a81548160ff0219169083151502179055505f6127108285815481106117fc576117fb612c1a565b5b905f5260205f2090600202015f0154846005015461181a9190612a52565b6118249190612ac0565b90505f60015f9054906101000a900473ffffffffffffffffffffffffffffffffffffffff1673ffffffffffffffffffffffffffffffffffffffff166384e5eed06040518163ffffffff1660e01b8152600401602060405180830381865afa158015611891573d5f803e3d5ffd5b505050506040513d601f19601f820116820180604052508101906118b59190612e4d565b90505f61271082846118c79190612a52565b6118d19190612ac0565b90505f81846118e09190612a1f565b905083866006015f8282546118f59190612af0565b925050819055505f8211156119715761197060035f9054906101000a900473ffffffffffffffffffffffffffffffffffffffff16837f000000000000000000000000000000000000000000000000000000000000000073ffffffffffffffffffffffffffffffffffffffff166120979092919063ffffffff16565b5b6119de865f015f9054906101000a900473ffffffffffffffffffffffffffffffffffffffff16827f000000000000000000000000000000000000000000000000000000000000000073ffffffffffffffffffffffffffffffffffffffff166120979092919063ffffffff16565b868873ffffffffffffffffffffffffffffffffffffffff167f6bb48fd8945006dde3ca4e31b655a59576be77e002858be66da4cbbbee98cc9586604051611a259190612849565b60405180910390a35050505050505050565b611a3f612020565b5f8103611a78576040517f1f2a200500000000000000000000000000000000000000000000000000000000815260040160405180910390fd5b5f60045f8473ffffffffffffffffffffffffffffffffffffffff1673ffffffffffffffffffffffffffffffffffffffff1681526020019081526020015f2090505f6002811115611acb57611aca6128f4565b5b815f0160149054906101000a900460ff166002811115611aee57611aed6128f4565b5b14611b25576040517f125cdf6400000000000000000000000000000000000000000000000000000000815260040160405180910390fd5b806004015442118015611b3f575080600201548160030154105b15611b76576040517f125cdf6400000000000000000000000000000000000000000000000000000000815260040160405180910390fd5b8060020154816003015410611bb7576040517f125cdf6400000000000000000000000000000000000000000000000000000000815260040160405180910390fd5b5f8160010154670de0b6b3a764000084611bd19190612a52565b611bdb9190612ac0565b90505f8103611c16576040517f9b2dded900000000000000000000000000000000000000000000000000000000815260040160405180910390fd5b5f82600301548360020154611c2b9190612a1f565b905080821115611c67576040517fd07a798f00000000000000000000000000000000000000000000000000000000815260040160405180910390fd5b611cb43330867f000000000000000000000000000000000000000000000000000000000000000073ffffffffffffffffffffffffffffffffffffffff16612042909392919063ffffffff16565b81836003015f828254611cc79190612af0565b9250508190555083836005015f828254611ce19190612af0565b92505081905550611d1333838773ffffffffffffffffffffffffffffffffffffffff166120979092919063ffffffff16565b3373ffffffffffffffffffffffffffffffffffffffff168573ffffffffffffffffffffffffffffffffffffffff167f6faf93231a456e552dbc9961f58d9713ee4f2e69d15f1975b050ef0911053a7b8685604051611d72929190612b23565b60405180910390a3505050611d856120ea565b5050565b60015f9054906101000a900473ffffffffffffffffffffffffffffffffffffffff1681565b611db6611f99565b5f73ffffffffffffffffffffffffffffffffffffffff168173ffffffffffffffffffffffffffffffffffffffff1603611e26575f6040517f1e4fbdf7000000000000000000000000000000000000000000000000000000008152600401611e1d91906128db565b60405180910390fd5b611e2f81612104565b50565b611e3a612020565b5f60045f8373ffffffffffffffffffffffffffffffffffffffff1673ffffffffffffffffffffffffffffffffffffffff1681526020019081526020015f2090505f816001015403611eb7576040517f4c4f68ca00000000000000000000000000000000000000000000000000000000815260040160405180910390fd5b60016002811115611ecb57611eca6128f4565b5b815f0160149054906101000a900460ff166002811115611eee57611eed6128f4565b5b03611f25576040517fe6a0d45f00000000000000000000000000000000000000000000000000000000815260040160405180910390fd5b5f81600201548260030154101590505f82600401544211905081158015611f4a575080155b15611f81576040517f1f8f7f1a00000000000000000000000000000000000000000000000000000000815260040160405180910390fd5b611f8b84846121d9565b505050611f966120ea565b50565b611fa16123be565b73ffffffffffffffffffffffffffffffffffffffff16611fbf611457565b73ffffffffffffffffffffffffffffffffffffffff161461201e57611fe26123be565b6040517f118cdaa700000000000000000000000000000000000000000000000000000000815260040161201591906128db565b60405180910390fd5b565b6120286123c5565b600261203a612035612406565b61242f565b5f0181905550565b612050848484846001612438565b61209157836040517f5274afe700000000000000000000000000000000000000000000000000000000815260040161208891906128db565b60405180910390fd5b50505050565b6120a483838360016124a9565b6120e557826040517f5274afe70000000000000000000000000000000000000000000000000000000081526004016120dc91906128db565b60405180910390fd5b505050565b60016120fc6120f7612406565b61242f565b5f0181905550565b5f805f9054906101000a900473ffffffffffffffffffffffffffffffffffffffff169050815f806101000a81548173ffffffffffffffffffffffffffffffffffffffff021916908373ffffffffffffffffffffffffffffffffffffffff1602179055508173ffffffffffffffffffffffffffffffffffffffff168173ffffffffffffffffffffffffffffffffffffffff167f8be0079c531659141344cd1fd0a4f28419497f9722a3daafe3b4186f6b6457e060405160405180910390a35050565b5f6121d183835f61250b565b905092915050565b5f81600301546b033b2e3c9fd0803ce80000006121f69190612a1f565b90505f81111561234a5761224c60025f9054906101000a900473ffffffffffffffffffffffffffffffffffffffff16828573ffffffffffffffffffffffffffffffffffffffff166120979092919063ffffffff16565b60025f9054906101000a900473ffffffffffffffffffffffffffffffffffffffff1673ffffffffffffffffffffffffffffffffffffffff1663317b84c16040518060a001604052808673ffffffffffffffffffffffffffffffffffffffff1681526020017f000000000000000000000000000000000000000000000000000000000000000073ffffffffffffffffffffffffffffffffffffffff1681526020018481526020015f815260200185600101548152506040518263ffffffff1660e01b815260040161231c9190612eed565b5f604051808303815f87803b158015612333575f80fd5b505af1158015612345573d5f803e3d5ffd5b505050505b6001825f0160146101000a81548160ff02191690836002811115612371576123706128f4565b5b02179055508273ffffffffffffffffffffffffffffffffffffffff167fc5ca2014458d93c5cf9f836ff7ece45de01c929dfb16eed9d6c3329fa1fd098260405160405180910390a2505050565b5f33905090565b6123cd612602565b15612404576040517f3ee5aeb500000000000000000000000000000000000000000000000000000000815260040160405180910390fd5b565b5f7f9b779b17422d0df92223018b32b4d1fa46e071723d6817e2486d003becc55f005f1b905090565b5f819050919050565b5f806323b872dd60e01b9050604051815f525f1960601c87166004525f1960601c86166024528460445260205f60645f808c5af1925060015f5114831661249657838315161561248a573d5f823e3d81fd5b5f883b113d1516831692505b806040525f606052505095945050505050565b5f8063a9059cbb60e01b9050604051815f525f1960601c86166004528460245260205f60445f808b5af1925060015f511483166124fd5783831516156124f1573d5f823e3d81fd5b5f873b113d1516831692505b806040525050949350505050565b5f814710156125535747826040517fcf47918100000000000000000000000000000000000000000000000000000000815260040161254a929190612b23565b60405180910390fd5b763d602d80600a3d3981f3363d3d373d3d3d363d730000008460601b60e81c175f526e5af43d82803e903d91602b57fd5bf38460781b17602052826037600984f590505f73ffffffffffffffffffffffffffffffffffffffff168173ffffffffffffffffffffffffffffffffffffffff16036125fb576040517fb06ebf3d00000000000000000000000000000000000000000000000000000000815260040160405180910390fd5b9392505050565b5f6002612615612610612406565b61242f565b5f015414905090565b5f80fd5b5f80fd5b5f73ffffffffffffffffffffffffffffffffffffffff82169050919050565b5f61264f82612626565b9050919050565b61265f81612645565b8114612669575f80fd5b50565b5f8135905061267a81612656565b92915050565b5f602082840312156126955761269461261e565b5b5f6126a28482850161266c565b91505092915050565b5f81519050919050565b5f82825260208201905092915050565b5f819050602082019050919050565b5f819050919050565b6126e6816126d4565b82525050565b5f8115159050919050565b612700816126ec565b82525050565b604082015f82015161271a5f8501826126dd565b50602082015161272d60208501826126f7565b50505050565b5f61273e8383612706565b60408301905092915050565b5f602082019050919050565b5f612760826126ab565b61276a81856126b5565b9350612775836126c5565b805f5b838110156127a557815161278c8882612733565b97506127978361274a565b925050600181019050612778565b5085935050505092915050565b5f6020820190508181035f8301526127ca8184612756565b905092915050565b6127db816126d4565b81146127e5575f80fd5b50565b5f813590506127f6816127d2565b92915050565b5f80604083850312156128125761281161261e565b5b5f61281f8582860161266c565b9250506020612830858286016127e8565b9150509250929050565b612843816126d4565b82525050565b5f60208201905061285c5f83018461283a565b92915050565b5f80fd5b5f610100828403121561287c5761287b612862565b5b81905092915050565b5f6020828403121561289a5761289961261e565b5b5f82013567ffffffffffffffff8111156128b7576128b6612622565b5b6128c384828501612866565b91505092915050565b6128d581612645565b82525050565b5f6020820190506128ee5f8301846128cc565b92915050565b7f4e487b71000000000000000000000000000000000000000000000000000000005f52602160045260245ffd5b60038110612932576129316128f4565b5b50565b5f81905061294282612921565b919050565b5f61295182612935565b9050919050565b61296181612947565b82525050565b5f6101208201905061297b5f83018c6128cc565b612988602083018b612958565b612995604083018a61283a565b6129a2606083018961283a565b6129af608083018861283a565b6129bc60a083018761283a565b6129c960c083018661283a565b6129d660e083018561283a565b6129e461010083018461283a565b9a9950505050505050505050565b7f4e487b71000000000000000000000000000000000000000000000000000000005f52601160045260245ffd5b5f612a29826126d4565b9150612a34836126d4565b9250828203905081811115612a4c57612a4b6129f2565b5b92915050565b5f612a5c826126d4565b9150612a67836126d4565b9250828202612a75816126d4565b91508282048414831517612a8c57612a8b6129f2565b5b5092915050565b7f4e487b71000000000000000000000000000000000000000000000000000000005f52601260045260245ffd5b5f612aca826126d4565b9150612ad5836126d4565b925082612ae557612ae4612a93565b5b828204905092915050565b5f612afa826126d4565b9150612b05836126d4565b9250828201905080821115612b1d57612b1c6129f2565b5b92915050565b5f604082019050612b365f83018561283a565b612b43602083018461283a565b9392505050565b5f80fd5b5f80fd5b5f80fd5b5f8083356001602003843603038112612b7257612b71612b4a565b5b80840192508235915067ffffffffffffffff821115612b9457612b93612b4e565b5b602083019250600182023603831315612bb057612baf612b52565b5b509250929050565b5f8083356001602003843603038112612bd457612bd3612b4a565b5b80840192508235915067ffffffffffffffff821115612bf657612bf5612b4e565b5b602083019250602082023603831315612c1257612c11612b52565b5b509250929050565b7f4e487b71000000000000000000000000000000000000000000000000000000005f52603260045260245ffd5b5f8160601b9050919050565b5f612c5d82612c47565b9050919050565b5f612c6e82612c53565b9050919050565b612c86612c8182612645565b612c64565b82525050565b5f819050919050565b5f819050919050565b612caf612caa82612c8c565b612c95565b82525050565b5f612cc08285612c75565b601482019150612cd08284612c9e565b6020820191508190509392505050565b5f82825260208201905092915050565b828183375f83830152505050565b5f601f19601f8301169050919050565b5f612d198385612ce0565b9350612d26838584612cf0565b612d2f83612cfe565b840190509392505050565b5f6080820190508181035f830152612d5381898b612d0e565b90508181036020830152612d68818789612d0e565b90508181036040830152612d7d818587612d0e565b9050612d8c60608301846128cc565b98975050505050505050565b5f60c0820190508181035f830152612db1818b8d612d0e565b90508181036020830152612dc681898b612d0e565b90508181036040830152612ddb818789612d0e565b9050612dea606083018661283a565b612df7608083018561283a565b612e0460a083018461283a565b9a9950505050505050505050565b5f604082019050612e255f8301856128cc565b612e3260208301846128cc565b9392505050565b5f81519050612e47816127d2565b92915050565b5f60208284031215612e6257612e6161261e565b5b5f612e6f84828501612e39565b91505092915050565b612e8181612645565b82525050565b60a082015f820151612e9b5f850182612e78565b506020820151612eae6020850182612e78565b506040820151612ec160408501826126dd565b506060820151612ed460608501826126dd565b506080820151612ee760808501826126dd565b50505050565b5f60a082019050612f005f830184612e87565b9291505056fea26469706673582212207b0c25723234ba083ccaff65b515dd49e496ba1c756d0a206e0bdca8c69005c264736f6c634300081a003360c060405234801561000f575f80fd5b5060405180602001604052805f81525060405180602001604052805f815250816003908161003d91906102cb565b50806004908161004d91906102cb565b50505046608081815250503073ffffffffffffffffffffffffffffffffffffffff1660a08173ffffffffffffffffffffffffffffffffffffffff168152505061039a565b5f81519050919050565b7f4e487b71000000000000000000000000000000000000000000000000000000005f52604160045260245ffd5b7f4e487b71000000000000000000000000000000000000000000000000000000005f52602260045260245ffd5b5f600282049050600182168061010c57607f821691505b60208210810361011f5761011e6100c8565b5b50919050565b5f819050815f5260205f209050919050565b5f6020601f8301049050919050565b5f82821b905092915050565b5f600883026101817fffffffffffffffffffffffffffffffffffffffffffffffffffffffffffffffff82610146565b61018b8683610146565b95508019841693508086168417925050509392505050565b5f819050919050565b5f819050919050565b5f6101cf6101ca6101c5846101a3565b6101ac565b6101a3565b9050919050565b5f819050919050565b6101e8836101b5565b6101fc6101f4826101d6565b848454610152565b825550505050565b5f90565b610210610204565b61021b8184846101df565b505050565b5b8181101561023e576102335f82610208565b600181019050610221565b5050565b601f8211156102835761025481610125565b61025d84610137565b8101602085101561026c578190505b61028061027885610137565b830182610220565b50505b505050565b5f82821c905092915050565b5f6102a35f1984600802610288565b1980831691505092915050565b5f6102bb8383610294565b9150826002028217905092915050565b6102d482610091565b67ffffffffffffffff8111156102ed576102ec61009b565b5b6102f782546100f5565b610302828285610242565b5f60209050601f831160018114610333575f8415610321578287015190505b61032b85826102b0565b865550610392565b601f19841661034186610125565b5f5b8281101561036857848901518255600182019150602085019450602081019050610343565b868310156103855784890151610381601f891682610294565b8355505b6001600288020188555050505b505050505050565b60805160a0516121c46103bb5f395f610b6b01525f610bc101526121c45ff3fe608060405234801561000f575f80fd5b5060043610610114575f3560e01c806370a08231116100a057806395d89b411161006f57806395d89b41146102e0578063a9059cbb146102fe578063d505accf1461032e578063dd62ed3e1461034a578063eeb522aa1461037a57610114565b806370a082311461024657806379cc6790146102765780637ecebe0014610292578063902d55a5146102c257610114565b8063313ce567116100e7578063313ce567146101b45780633644e515146101d25780633c130d90146101f057806342966c681461020e5780635c6d8da11461022a57610114565b806306fdde0314610118578063095ea7b31461013657806318160ddd1461016657806323b872dd14610184575b5f80fd5b610120610398565b60405161012d9190611549565b60405180910390f35b610150600480360381019061014b91906115fe565b610428565b60405161015d9190611656565b60405180910390f35b61016e61044a565b60405161017b919061167e565b60405180910390f35b61019e60048036038101906101999190611697565b610453565b6040516101ab9190611656565b60405180910390f35b6101bc610481565b6040516101c99190611702565b60405180910390f35b6101da610489565b6040516101e79190611733565b60405180910390f35b6101f8610497565b6040516102059190611549565b60405180910390f35b6102286004803603810190610223919061174c565b610527565b005b610244600480360381019061023f91906117d8565b61053b565b005b610260600480360381019061025b919061189c565b610679565b60405161026d919061167e565b60405180910390f35b610290600480360381019061028b91906115fe565b6106be565b005b6102ac60048036038101906102a7919061189c565b6106de565b6040516102b9919061167e565b60405180910390f35b6102ca610724565b6040516102d7919061167e565b60405180910390f35b6102e8610734565b6040516102f59190611549565b60405180910390f35b610318600480360381019061031391906115fe565b6107c4565b6040516103259190611656565b60405180910390f35b6103486004803603810190610343919061191b565b6107e6565b005b610364600480360381019061035f91906119b8565b610925565b604051610371919061167e565b60405180910390f35b6103826109a7565b60405161038f9190611a05565b60405180910390f35b6060600680546103a790611a4b565b80601f01602080910402602001604051908101604052809291908181526020018280546103d390611a4b565b801561041e5780601f106103f55761010080835404028352916020019161041e565b820191905f5260205f20905b81548152906001019060200180831161040157829003601f168201915b5050505050905090565b5f806104326109cc565b905061043f8185856109d3565b600191505092915050565b5f600254905090565b5f8061045d6109cc565b905061046a8582856109e5565b610475858585610a78565b60019150509392505050565b5f6012905090565b5f610492610b68565b905090565b6060600880546104a690611a4b565b80601f01602080910402602001604051908101604052809291908181526020018280546104d290611a4b565b801561051d5780601f106104f45761010080835404028352916020019161051d565b820191905f5260205f20905b81548152906001019060200180831161050057829003601f168201915b5050505050905090565b6105386105326109cc565b82610c38565b50565b600560149054906101000a900460ff1615610582576040517f0dc149f000000000000000000000000000000000000000000000000000000000815260040160405180910390fd5b6001600560146101000a81548160ff0219169083151502179055503360055f6101000a81548173ffffffffffffffffffffffffffffffffffffffff021916908373ffffffffffffffffffffffffffffffffffffffff1602179055508686600691826105ee929190611c4f565b50848460079182610600929190611c4f565b50828260089182610612929190611c4f565b50610629816b033b2e3c9fd0803ce8000000610cb7565b61066a7f8b73c3c69bb8fe3d512ecc4cf759cc79239f7b179b0ffacaa9a75d522b39400f888860405161065d929190611d58565b6040518091039020610d36565b60098190555050505050505050565b5f805f8373ffffffffffffffffffffffffffffffffffffffff1673ffffffffffffffffffffffffffffffffffffffff1681526020019081526020015f20549050919050565b6106d0826106ca6109cc565b836109e5565b6106da8282610c38565b5050565b5f600a5f8373ffffffffffffffffffffffffffffffffffffffff1673ffffffffffffffffffffffffffffffffffffffff1681526020019081526020015f20549050919050565b6b033b2e3c9fd0803ce800000081565b60606007805461074390611a4b565b80601f016020809104026020016040519081016040528092919081815260200182805461076f90611a4b565b80156107ba5780601f10610791576101008083540402835291602001916107ba565b820191905f5260205f20905b81548152906001019060200180831161079d57829003601f168201915b5050505050905090565b5f806107ce6109cc565b90506107db818585610a78565b600191505092915050565b83421115610829576040517f08c379a000000000000000000000000000000000000000000000000000000000815260040161082090611dba565b60405180910390fd5b5f7f6e71edae12b1b97f4d1f60370fef10105fa2faae0126114a169c64845d6126c98888886108578c610daa565b8960405160200161086d96959493929190611dd8565b6040516020818303038152906040528051906020012090505f61088f82610e42565b90505f61089e82878787610e7a565b90508973ffffffffffffffffffffffffffffffffffffffff168173ffffffffffffffffffffffffffffffffffffffff161461090e576040517f08c379a000000000000000000000000000000000000000000000000000000000815260040161090590611e81565b60405180910390fd5b6109198a8a8a6109d3565b50505050505050505050565b5f60015f8473ffffffffffffffffffffffffffffffffffffffff1673ffffffffffffffffffffffffffffffffffffffff1681526020019081526020015f205f8373ffffffffffffffffffffffffffffffffffffffff1673ffffffffffffffffffffffffffffffffffffffff1681526020019081526020015f2054905092915050565b60055f9054906101000a900473ffffffffffffffffffffffffffffffffffffffff1681565b5f33905090565b6109e08383836001610ea8565b505050565b5f6109f08484610925565b90507fffffffffffffffffffffffffffffffffffffffffffffffffffffffffffffffff811015610a725781811015610a63578281836040517ffb8f41b2000000000000000000000000000000000000000000000000000000008152600401610a5a93929190611e9f565b60405180910390fd5b610a7184848484035f610ea8565b5b50505050565b5f73ffffffffffffffffffffffffffffffffffffffff168373ffffffffffffffffffffffffffffffffffffffff1603610ae8575f6040517f96c6fd1e000000000000000000000000000000000000000000000000000000008152600401610adf9190611a05565b60405180910390fd5b5f73ffffffffffffffffffffffffffffffffffffffff168273ffffffffffffffffffffffffffffffffffffffff1603610b58575f6040517fec442f05000000000000000000000000000000000000000000000000000000008152600401610b4f9190611a05565b60405180910390fd5b610b63838383611077565b505050565b5f7f000000000000000000000000000000000000000000000000000000000000000073ffffffffffffffffffffffffffffffffffffffff163073ffffffffffffffffffffffffffffffffffffffff16148015610be357507f000000000000000000000000000000000000000000000000000000000000000046145b15610bf2576009549050610c35565b610c327f8b73c3c69bb8fe3d512ecc4cf759cc79239f7b179b0ffacaa9a75d522b39400f6006604051610c259190611f66565b6040518091039020610d36565b90505b90565b5f73ffffffffffffffffffffffffffffffffffffffff168273ffffffffffffffffffffffffffffffffffffffff1603610ca8575f6040517f96c6fd1e000000000000000000000000000000000000000000000000000000008152600401610c9f9190611a05565b60405180910390fd5b610cb3825f83611077565b5050565b5f73ffffffffffffffffffffffffffffffffffffffff168273ffffffffffffffffffffffffffffffffffffffff1603610d27575f6040517fec442f05000000000000000000000000000000000000000000000000000000008152600401610d1e9190611a05565b60405180910390fd5b610d325f8383611077565b5050565b5f82826040518060400160405280600181526020017f3100000000000000000000000000000000000000000000000000000000000000815250805190602001204630604051602001610d8c959493929190611f7c565b60405160208183030381529060405280519060200120905092915050565b5f600a5f8373ffffffffffffffffffffffffffffffffffffffff1673ffffffffffffffffffffffffffffffffffffffff1681526020019081526020015f20549050600a5f8373ffffffffffffffffffffffffffffffffffffffff1673ffffffffffffffffffffffffffffffffffffffff1681526020019081526020015f205f815480929190610e3890611ffa565b9190505550919050565b5f610e4b610b68565b82604051602001610e5d9291906120b5565b604051602081830303815290604052805190602001209050919050565b5f805f80610e8a88888888611290565b925092509250610e9a8282611377565b829350505050949350505050565b5f73ffffffffffffffffffffffffffffffffffffffff168473ffffffffffffffffffffffffffffffffffffffff1603610f18575f6040517fe602df05000000000000000000000000000000000000000000000000000000008152600401610f0f9190611a05565b60405180910390fd5b5f73ffffffffffffffffffffffffffffffffffffffff168373ffffffffffffffffffffffffffffffffffffffff1603610f88575f6040517f94280d62000000000000000000000000000000000000000000000000000000008152600401610f7f9190611a05565b60405180910390fd5b8160015f8673ffffffffffffffffffffffffffffffffffffffff1673ffffffffffffffffffffffffffffffffffffffff1681526020019081526020015f205f8573ffffffffffffffffffffffffffffffffffffffff1673ffffffffffffffffffffffffffffffffffffffff1681526020019081526020015f20819055508015611071578273ffffffffffffffffffffffffffffffffffffffff168473ffffffffffffffffffffffffffffffffffffffff167f8c5be1e5ebec7d5bd14f71427d1e84f3dd0314c0f7b2291e5b200ac8c7c3b92584604051611068919061167e565b60405180910390a35b50505050565b5f73ffffffffffffffffffffffffffffffffffffffff168373ffffffffffffffffffffffffffffffffffffffff16036110c7578060025f8282546110bb91906120eb565b92505081905550611195565b5f805f8573ffffffffffffffffffffffffffffffffffffffff1673ffffffffffffffffffffffffffffffffffffffff1681526020019081526020015f2054905081811015611150578381836040517fe450d38c00000000000000000000000000000000000000000000000000000000815260040161114793929190611e9f565b60405180910390fd5b8181035f808673ffffffffffffffffffffffffffffffffffffffff1673ffffffffffffffffffffffffffffffffffffffff1681526020019081526020015f2081905550505b5f73ffffffffffffffffffffffffffffffffffffffff168273ffffffffffffffffffffffffffffffffffffffff16036111dc578060025f8282540392505081905550611226565b805f808473ffffffffffffffffffffffffffffffffffffffff1673ffffffffffffffffffffffffffffffffffffffff1681526020019081526020015f205f82825401925050819055505b8173ffffffffffffffffffffffffffffffffffffffff168373ffffffffffffffffffffffffffffffffffffffff167fddf252ad1be2c89b69c2b068fc378daa952ba7f163c4a11628f55a4df523b3ef83604051611283919061167e565b60405180910390a3505050565b5f805f7f7fffffffffffffffffffffffffffffff5d576e7357a4501ddfe92f46681b20a0845f1c11156112cc575f60038592509250925061136d565b5f6001888888886040515f81526020016040526040516112ef949392919061211e565b6020604051602081039080840390855afa15801561130f573d5f803e3d5ffd5b5050506020604051035190505f73ffffffffffffffffffffffffffffffffffffffff168173ffffffffffffffffffffffffffffffffffffffff1603611360575f60015f801b9350935093505061136d565b805f805f1b935093509350505b9450945094915050565b5f600381111561138a57611389612161565b5b82600381111561139d5761139c612161565b5b03156114d557600160038111156113b7576113b6612161565b5b8260038111156113ca576113c9612161565b5b03611401576040517ff645eedf00000000000000000000000000000000000000000000000000000000815260040160405180910390fd5b6002600381111561141557611414612161565b5b82600381111561142857611427612161565b5b0361146c57805f1c6040517ffce698f7000000000000000000000000000000000000000000000000000000008152600401611463919061167e565b60405180910390fd5b60038081111561147f5761147e612161565b5b82600381111561149257611491612161565b5b036114d457806040517fd78bce0c0000000000000000000000000000000000000000000000000000000081526004016114cb9190611733565b60405180910390fd5b5b5050565b5f81519050919050565b5f82825260208201905092915050565b8281835e5f83830152505050565b5f601f19601f8301169050919050565b5f61151b826114d9565b61152581856114e3565b93506115358185602086016114f3565b61153e81611501565b840191505092915050565b5f6020820190508181035f8301526115618184611511565b905092915050565b5f80fd5b5f80fd5b5f73ffffffffffffffffffffffffffffffffffffffff82169050919050565b5f61159a82611571565b9050919050565b6115aa81611590565b81146115b4575f80fd5b50565b5f813590506115c5816115a1565b92915050565b5f819050919050565b6115dd816115cb565b81146115e7575f80fd5b50565b5f813590506115f8816115d4565b92915050565b5f806040838503121561161457611613611569565b5b5f611621858286016115b7565b9250506020611632858286016115ea565b9150509250929050565b5f8115159050919050565b6116508161163c565b82525050565b5f6020820190506116695f830184611647565b92915050565b611678816115cb565b82525050565b5f6020820190506116915f83018461166f565b92915050565b5f805f606084860312156116ae576116ad611569565b5b5f6116bb868287016115b7565b93505060206116cc868287016115b7565b92505060406116dd868287016115ea565b9150509250925092565b5f60ff82169050919050565b6116fc816116e7565b82525050565b5f6020820190506117155f8301846116f3565b92915050565b5f819050919050565b61172d8161171b565b82525050565b5f6020820190506117465f830184611724565b92915050565b5f6020828403121561176157611760611569565b5b5f61176e848285016115ea565b91505092915050565b5f80fd5b5f80fd5b5f80fd5b5f8083601f84011261179857611797611777565b5b8235905067ffffffffffffffff8111156117b5576117b461177b565b5b6020830191508360018202830111156117d1576117d061177f565b5b9250929050565b5f805f805f805f6080888a0312156117f3576117f2611569565b5b5f88013567ffffffffffffffff8111156118105761180f61156d565b5b61181c8a828b01611783565b9750975050602088013567ffffffffffffffff81111561183f5761183e61156d565b5b61184b8a828b01611783565b9550955050604088013567ffffffffffffffff81111561186e5761186d61156d565b5b61187a8a828b01611783565b9350935050606061188d8a828b016115b7565b91505092959891949750929550565b5f602082840312156118b1576118b0611569565b5b5f6118be848285016115b7565b91505092915050565b6118d0816116e7565b81146118da575f80fd5b50565b5f813590506118eb816118c7565b92915050565b6118fa8161171b565b8114611904575f80fd5b50565b5f81359050611915816118f1565b92915050565b5f805f805f805f60e0888a03121561193657611935611569565b5b5f6119438a828b016115b7565b97505060206119548a828b016115b7565b96505060406119658a828b016115ea565b95505060606119768a828b016115ea565b94505060806119878a828b016118dd565b93505060a06119988a828b01611907565b92505060c06119a98a828b01611907565b91505092959891949750929550565b5f80604083850312156119ce576119cd611569565b5b5f6119db858286016115b7565b92505060206119ec858286016115b7565b9150509250929050565b6119ff81611590565b82525050565b5f602082019050611a185f8301846119f6565b92915050565b7f4e487b71000000000000000000000000000000000000000000000000000000005f52602260045260245ffd5b5f6002820490506001821680611a6257607f821691505b602082108103611a7557611a74611a1e565b5b50919050565b5f82905092915050565b7f4e487b71000000000000000000000000000000000000000000000000000000005f52604160045260245ffd5b5f819050815f5260205f209050919050565b5f6020601f8301049050919050565b5f82821b905092915050565b5f60088302611b0e7fffffffffffffffffffffffffffffffffffffffffffffffffffffffffffffffff82611ad3565b611b188683611ad3565b95508019841693508086168417925050509392505050565b5f819050919050565b5f611b53611b4e611b49846115cb565b611b30565b6115cb565b9050919050565b5f819050919050565b611b6c83611b39565b611b80611b7882611b5a565b848454611adf565b825550505050565b5f90565b611b94611b88565b611b9f818484611b63565b505050565b5b81811015611bc257611bb75f82611b8c565b600181019050611ba5565b5050565b601f821115611c0757611bd881611ab2565b611be184611ac4565b81016020851015611bf0578190505b611c04611bfc85611ac4565b830182611ba4565b50505b505050565b5f82821c905092915050565b5f611c275f1984600802611c0c565b1980831691505092915050565b5f611c3f8383611c18565b9150826002028217905092915050565b611c598383611a7b565b67ffffffffffffffff811115611c7257611c71611a85565b5b611c7c8254611a4b565b611c87828285611bc6565b5f601f831160018114611cb4575f8415611ca2578287013590505b611cac8582611c34565b865550611d13565b601f198416611cc286611ab2565b5f5b82811015611ce957848901358255600182019150602085019450602081019050611cc4565b86831015611d065784890135611d02601f891682611c18565b8355505b6001600288020188555050505b50505050505050565b5f81905092915050565b828183375f83830152505050565b5f611d3f8385611d1c565b9350611d4c838584611d26565b82840190509392505050565b5f611d64828486611d34565b91508190509392505050565b7f45524332305065726d69743a206578706972656420646561646c696e650000005f82015250565b5f611da4601d836114e3565b9150611daf82611d70565b602082019050919050565b5f6020820190508181035f830152611dd181611d98565b9050919050565b5f60c082019050611deb5f830189611724565b611df860208301886119f6565b611e0560408301876119f6565b611e12606083018661166f565b611e1f608083018561166f565b611e2c60a083018461166f565b979650505050505050565b7f45524332305065726d69743a20696e76616c6964207369676e617475726500005f82015250565b5f611e6b601e836114e3565b9150611e7682611e37565b602082019050919050565b5f6020820190508181035f830152611e9881611e5f565b9050919050565b5f606082019050611eb25f8301866119f6565b611ebf602083018561166f565b611ecc604083018461166f565b949350505050565b5f819050815f5260205f209050919050565b5f8154611ef281611a4b565b611efc8186611d1c565b9450600182165f8114611f165760018114611f2b57611f5d565b60ff1983168652811515820286019350611f5d565b611f3485611ed4565b5f5b83811015611f5557815481890152600182019150602081019050611f36565b838801955050505b50505092915050565b5f611f718284611ee6565b915081905092915050565b5f60a082019050611f8f5f830188611724565b611f9c6020830187611724565b611fa96040830186611724565b611fb6606083018561166f565b611fc360808301846119f6565b9695505050505050565b7f4e487b71000000000000000000000000000000000000000000000000000000005f52601160045260245ffd5b5f612004826115cb565b91507fffffffffffffffffffffffffffffffffffffffffffffffffffffffffffffffff820361203657612035611fcd565b5b600182019050919050565b5f81905092915050565b7f19010000000000000000000000000000000000000000000000000000000000005f82015250565b5f61207f600283612041565b915061208a8261204b565b600282019050919050565b5f819050919050565b6120af6120aa8261171b565b612095565b82525050565b5f6120bf82612073565b91506120cb828561209e565b6020820191506120db828461209e565b6020820191508190509392505050565b5f6120f5826115cb565b9150612100836115cb565b925082820190508082111561211857612117611fcd565b5b92915050565b5f6080820190506121315f830187611724565b61213e60208301866116f3565b61214b6040830185611724565b6121586060830184611724565b95945050505050565b7f4e487b71000000000000000000000000000000000000000000000000000000005f52602160045260245ffdfea26469706673582212208c817695e0280c7d9fdf009a2abe9b7b10d0e33267a6ca598329a1890f3c5aba64736f6c634300081a0033","linkReferences":{}},"methodIdentifiers":{"MAX_MILESTONES()":"4c05abeb","TOKEN_IMPLEMENTATION()":"7cc88513","TOTAL_SUPPLY()":"902d55a5","USDC()":"89a30271","approveMilestone(address,uint256)":"c81ed0e3","buy(address,uint256)":"cce7ec13","collectFees(address)":"a480ca79","create((string,string,string,uint256,uint256,uint256,uint256[],bytes32))":"7a1b05f0","failProject(address)":"52f0abc6","feeManager()":"d0fb0203","getMilestones(address)":"22a4e42d","graduate(address)":"ff6d8d05","lpManager()":"b906f15a","owner()":"8da5cb5b","projects(address)":"840e78fd","protocolTreasury()":"803db96d","refund(address,uint256)":"410085df","renounceOwnership()":"715018a6","setFeeManager(address)":"472d35b9","setLpManager(address)":"8b811981","setProtocolTreasury(address)":"0c5a61f8","transferOwnership(address)":"f2fde38b"},"id":92}