{"abi":[{"type":"constructor","inputs":[{"name":"_poolManager","type":"address","internalType":"address"},{"name":"_ido","type":"address","internalType":"address"},{"name":"_swapFeeHook","type":"address","internalType":"address"}],"stateMutability":"nonpayable"},{"type":"function","name":"IDO","inputs":[],"outputs":[{"name":"","type":"address","internalType":"address"}],"stateMutability":"view"},{"type":"function","name":"POOL_FEE","inputs":[],"outputs":[{"name":"","type":"uint24","internalType":"uint24"}],"stateMutability":"view"},{"type":"function","name":"POOL_MANAGER","inputs":[],"outputs":[{"name":"","type":"address","internalType":"contract IPoolManager"}],"stateMutability":"view"},{"type":"function","name":"SWAP_FEE_HOOK","inputs":[],"outputs":[{"name":"","type":"address","internalType":"contract IHooks"}],"stateMutability":"view"},{"type":"function","name":"TICK_SPACING","inputs":[],"outputs":[{"name":"","type":"int24","internalType":"int24"}],"stateMutability":"view"},{"type":"function","name":"allocate","inputs":[{"name":"params","type":"tuple","internalType":"struct ILpManager.AllocateParams","components":[{"name":"token","type":"address","internalType":"address"},{"name":"usdc","type":"address","internalType":"address"},{"name":"tokenAmount","type":"uint256","internalType":"uint256"},{"name":"usdcAmount","type":"uint256","internalType":"uint256"},{"name":"tokenPrice","type":"uint256","internalType":"uint256"}]}],"outputs":[],"stateMutability":"nonpayable"},{"type":"function","name":"collectFees","inputs":[{"name":"token","type":"address","internalType":"address"},{"name":"recipient","type":"address","internalType":"address"}],"outputs":[],"stateMutability":"nonpayable"},{"type":"function","name":"unlockCallback","inputs":[{"name":"data","type":"bytes","internalType":"bytes"}],"outputs":[{"name":"","type":"bytes","internalType":"bytes"}],"stateMutability":"nonpayable"},{"type":"event","name":"FeesCollected","inputs":[{"name":"token","type":"address","indexed":true,"internalType":"address"},{"name":"amount0","type":"uint256","indexed":false,"internalType":"uint256"},{"name":"amount1","type":"uint256","indexed":false,"internalType":"uint256"}],"anonymous":false},{"type":"event","name":"LiquidityAllocated","inputs":[{"name":"token","type":"address","indexed":true,"internalType":"address"},{"name":"pool","type":"address","indexed":true,"internalType":"address"},{"name":"tokenAmount","type":"uint256","indexed":false,"internalType":"uint256"},{"name":"tickLower","type":"int24","indexed":false,"internalType":"int24"},{"name":"tickUpper","type":"int24","indexed":false,"internalType":"int24"}],"anonymous":false},{"type":"error","name":"InvalidTokenAmount","inputs":[]},{"type":"error","name":"OnlyIDO","inputs":[]},{"type":"error","name":"OnlyPoolManager","inputs":[]},{"type":"error","name":"PositionNotFound","inputs":[]},{"type":"error","name":"SafeERC20FailedOperation","inputs":[{"name":"token","type":"address","internalType":"address"}]},{"type":"error","name":"ZeroAddress","inputs":[]}],"bytecode":{"object":"0x60e060405234801561000f575f80fd5b5060405161362038038061362083398181016040528101906100319190610262565b5f73ffffffffffffffffffffffffffffffffffffffff168373ffffffffffffffffffffffffffffffffffffffff1603610096576040517fd92e233d00000000000000000000000000000000000000000000000000000000815260040160405180910390fd5b5f73ffffffffffffffffffffffffffffffffffffffff168273ffffffffffffffffffffffffffffffffffffffff16036100fb576040517fd92e233d00000000000000000000000000000000000000000000000000000000815260040160405180910390fd5b5f73ffffffffffffffffffffffffffffffffffffffff168173ffffffffffffffffffffffffffffffffffffffff1603610160576040517fd92e233d00000000000000000000000000000000000000000000000000000000815260040160405180910390fd5b8273ffffffffffffffffffffffffffffffffffffffff1660808173ffffffffffffffffffffffffffffffffffffffff16815250508173ffffffffffffffffffffffffffffffffffffffff1660a08173ffffffffffffffffffffffffffffffffffffffff16815250508073ffffffffffffffffffffffffffffffffffffffff1660c08173ffffffffffffffffffffffffffffffffffffffff16815250505050506102b2565b5f80fd5b5f73ffffffffffffffffffffffffffffffffffffffff82169050919050565b5f61023182610208565b9050919050565b61024181610227565b811461024b575f80fd5b50565b5f8151905061025c81610238565b92915050565b5f805f6060848603121561027957610278610204565b5b5f6102868682870161024e565b93505060206102978682870161024e565b92505060406102a88682870161024e565b9150509250925092565b60805160a05160c0516132bf6103615f395f818161031d0152610bbe01525f818161018a015281816108360152610a7e01525f818161036a0152818161070e015281816109d601528181610aa201528181610ac801528181610cd001528181610dcd01528181610eb501528181610f4e015281816116930152818161171c0152818161177f01528181611823015281816118ac0152818161190f015281816119ab0152611a4401526132bf5ff3fe608060405234801561000f575f80fd5b5060043610610086575f3560e01c806362308e851161005957806362308e85146100fe57806391dd73461461011c578063cf9f24cb1461014c578063dd1b9c4a1461016a57610086565b8063317b84c11461008a5780633c9b4522146100a657806346ca626b146100c25780634c097e15146100e0575b5f80fd5b6100a4600480360381019061009f9190612152565b610188565b005b6100c060048036038101906100bb91906121d7565b610834565b005b6100ca610a77565b6040516100d79190612230565b60405180910390f35b6100e8610a7c565b6040516100f59190612258565b60405180910390f35b610106610aa0565b60405161011391906122cc565b60405180910390f35b61013660048036038101906101319190612346565b610ac4565b6040516101439190612401565b60405180910390f35b610154610bbc565b6040516101619190612441565b60405180910390f35b610172610be0565b60405161017f9190612477565b60405180910390f35b7f000000000000000000000000000000000000000000000000000000000000000073ffffffffffffffffffffffffffffffffffffffff163373ffffffffffffffffffffffffffffffffffffffff161461020d576040517f780bc98000000000000000000000000000000000000000000000000000000000815260040160405180910390fd5b5f81604001350361024a576040517f2160733900000000000000000000000000000000000000000000000000000000815260040160405180910390fd5b5f80610279835f0160208101906102619190612490565b8460200160208101906102749190612490565b610be6565b915091505f835f0160208101906102909190612490565b73ffffffffffffffffffffffffffffffffffffffff168373ffffffffffffffffffffffffffffffffffffffff161490505f6040518060a001604052808573ffffffffffffffffffffffffffffffffffffffff1681526020018473ffffffffffffffffffffffffffffffffffffffff168152602001610bb862ffffff168152602001603c60020b81526020017f000000000000000000000000000000000000000000000000000000000000000073ffffffffffffffffffffffffffffffffffffffff1681525090505f610366866080013584610c35565b90507f000000000000000000000000000000000000000000000000000000000000000073ffffffffffffffffffffffffffffffffffffffff16636276cbbe83836040518363ffffffff1660e01b81526004016103c392919061257d565b6020604051808303815f875af11580156103df573d5f803e3d5ffd5b505050506040513d601f19601f8201168201806040525081019061040391906125ce565b505f61040e82610c89565b90505f603c808361041f9190612653565b61042991906126bb565b90505f80861561046757603c8361044091906126f7565b9150603c620d89e86104529190612751565b620d89e86104609190612781565b90506104c5565b603c7ffffffffffffffffffffffffffffffffffffffffffffffffffffffffffff276186104949190612751565b7ffffffffffffffffffffffffffffffffffffffffffffffffffffffffffff276186104bf9190612781565b91508290505b60405180606001604052808781526020018360020b81526020018260020b8152505f808c5f0160208101906104fa9190612490565b73ffffffffffffffffffffffffffffffffffffffff1673ffffffffffffffffffffffffffffffffffffffff1681526020019081526020015f205f820151815f015f820151815f015f6101000a81548173ffffffffffffffffffffffffffffffffffffffff021916908373ffffffffffffffffffffffffffffffffffffffff1602179055506020820151816001015f6101000a81548173ffffffffffffffffffffffffffffffffffffffff021916908373ffffffffffffffffffffffffffffffffffffffff16021790555060408201518160010160146101000a81548162ffffff021916908362ffffff16021790555060608201518160010160176101000a81548162ffffff021916908360020b62ffffff1602179055506080820151816002015f6101000a81548173ffffffffffffffffffffffffffffffffffffffff021916908373ffffffffffffffffffffffffffffffffffffffff16021790555050506020820151816003015f6101000a81548162ffffff021916908360020b62ffffff16021790555060408201518160030160036101000a81548162ffffff021916908360020b62ffffff1602179055509050505f808784848e5f0160208101906106c29190612490565b8f604001356040516020016106db9594939291906127f3565b6040516020818303038152906040526040516020016106fb9291906128b9565b60405160208183030381529060405290507f000000000000000000000000000000000000000000000000000000000000000073ffffffffffffffffffffffffffffffffffffffff166348c89491826040518263ffffffff1660e01b81526004016107659190612401565b5f604051808303815f875af1158015610780573d5f803e3d5ffd5b505050506040513d5f823e3d601f19601f820116820180604052508101906107a89190612a01565b505f73ffffffffffffffffffffffffffffffffffffffff168b5f0160208101906107d29190612490565b73ffffffffffffffffffffffffffffffffffffffff167f956049cc7441f8bafe9f6bee88e4c07c1297274b5005a5d150e7e1e48c674c708d60400135868660405161081f93929190612a48565b60405180910390a35050505050505050505050565b7f000000000000000000000000000000000000000000000000000000000000000073ffffffffffffffffffffffffffffffffffffffff163373ffffffffffffffffffffffffffffffffffffffff16146108b9576040517f780bc98000000000000000000000000000000000000000000000000000000000815260040160405180910390fd5b5f805f8473ffffffffffffffffffffffffffffffffffffffff1673ffffffffffffffffffffffffffffffffffffffff1681526020019081526020015f2090505f816003015f9054906101000a900460020b60020b14801561092d57505f8160030160039054906101000a900460020b60020b145b15610964576040517f6ec9be1100000000000000000000000000000000000000000000000000000000815260040160405180910390fd5b5f60018484845f01856003015f9054906101000a900460020b8660030160039054906101000a900460020b6040516020016109a3959493929190612bed565b6040516020818303038152906040526040516020016109c39291906128b9565b60405160208183030381529060405290507f000000000000000000000000000000000000000000000000000000000000000073ffffffffffffffffffffffffffffffffffffffff166348c89491826040518263ffffffff1660e01b8152600401610a2d9190612401565b5f604051808303815f875af1158015610a48573d5f803e3d5ffd5b505050506040513d5f823e3d601f19601f82011682018060405250810190610a709190612a01565b5050505050565b603c81565b7f000000000000000000000000000000000000000000000000000000000000000081565b7f000000000000000000000000000000000000000000000000000000000000000081565b60607f000000000000000000000000000000000000000000000000000000000000000073ffffffffffffffffffffffffffffffffffffffff163373ffffffffffffffffffffffffffffffffffffffff1614610b4b576040517ff655705d00000000000000000000000000000000000000000000000000000000815260040160405180910390fd5b5f808484810190610b5c9190612cdf565b915091505f6001811115610b7357610b72612846565b5b826001811115610b8657610b85612846565b5b03610b9957610b9481610c9a565b610ba3565b610ba281610da7565b5b60405180602001604052805f8152509250505092915050565b7f000000000000000000000000000000000000000000000000000000000000000081565b610bb881565b5f808273ffffffffffffffffffffffffffffffffffffffff168473ffffffffffffffffffffffffffffffffffffffff161015610c2757839150829050610c2e565b8291508390505b9250929050565b5f808215610c5c57610c558460c06001901b670de0b6b3a764000061107c565b9050610c77565b610c74670de0b6b3a764000060c06001901b8661107c565b90505b610c808161113f565b91505092915050565b5f610c93826112d9565b9050919050565b5f805f805f85806020019051810190610cb39190612eba565b945094509450945094505f610ccb85858489876115d0565b90505f7f000000000000000000000000000000000000000000000000000000000000000073ffffffffffffffffffffffffffffffffffffffff16635a6bcfda8860405180608001604052808a60020b81526020018960020b81526020018681526020015f801b8152506040518363ffffffff1660e01b8152600401610d51929190612fd9565b60408051808303815f875af1158015610d6c573d5f803e3d5ffd5b505050506040513d601f19601f82011682018060405250810190610d90919061303f565b509050610d9d8782611667565b5050505050505050565b5f805f805f85806020019051810190610dc0919061307d565b945094509450945094505f7f000000000000000000000000000000000000000000000000000000000000000073ffffffffffffffffffffffffffffffffffffffff16635a6bcfda8560405180608001604052808760020b81526020018660020b81526020015f81526020015f801b8152506040518363ffffffff1660e01b8152600401610e4e929190612fd9565b60408051808303815f875af1158015610e69573d5f803e3d5ffd5b505050506040513d601f19601f82011682018060405250810190610e8d919061303f565b5090505f610e9a82611ad7565b90505f610ea683611ae3565b90505f82600f0b1315610f41577f000000000000000000000000000000000000000000000000000000000000000073ffffffffffffffffffffffffffffffffffffffff16630b0d9c09875f015189856040518463ffffffff1660e01b8152600401610f1393929190613150565b5f604051808303815f87803b158015610f2a575f80fd5b505af1158015610f3c573d5f803e3d5ffd5b505050505b5f81600f0b1315610fdb577f000000000000000000000000000000000000000000000000000000000000000073ffffffffffffffffffffffffffffffffffffffff16630b0d9c09876020015189846040518463ffffffff1660e01b8152600401610fad93929190613150565b5f604051808303815f87803b158015610fc4575f80fd5b505af1158015610fd6573d5f803e3d5ffd5b505050505b8773ffffffffffffffffffffffffffffffffffffffff167f2e4fb6077d4acf86e12bb7411fb82b2b3eaa6a49787f4b1e17b423e7ea8411695f84600f0b13611023575f611037565b836fffffffffffffffffffffffffffffffff165b5f84600f0b13611047575f61105b565b836fffffffffffffffffffffffffffffffff165b604051611069929190613185565b60405180910390a2505050505050505050565b5f8083850290505f80198587098281108382030391505080841161109e575f80fd5b5f81036110b15783820492505050611138565b5f8486880990508281118203915080830392505f85865f0316905080860495508084049350600181825f0304019050808302841793505f600287600302189050808702600203810290508087026002038102905080870260020381029050808702600203810290508087026002038102905080870260020381029050808502955050505050505b9392505050565b5f60018211611150578190506112d4565b5f8290505f60019050700100000000000000000000000000000000821061118057608082901c9150604081901b90505b68010000000000000000821061119f57604082901c9150602081901b90505b64010000000082106111ba57602082901c9150601081901b90505b6201000082106111d357601082901c9150600881901b90505b61010082106111eb57600882901c9150600481901b90505b6010821061120257600482901c9150600281901b90505b6004821061121257600181901b90505b600181600302901c9050600181858161122e5761122d6125f9565b5b048201901c90506001818581611247576112466125f9565b5b048201901c905060018185816112605761125f6125f9565b5b048201901c90506001818581611279576112786125f9565b5b048201901c90506001818581611292576112916125f9565b5b048201901c905060018185816112ab576112aa6125f9565b5b048201901c90506112cd8185816112c5576112c46125f9565b5b048211611aef565b8103925050505b919050565b5f73fffd8963efd1fc6a506488495d951d516396168273ffffffffffffffffffffffffffffffffffffffff166401000276a3830373ffffffffffffffffffffffffffffffffffffffff1611156113635761136282636148752460e01b7bffffffffffffffffffffffffffffffffffffffffffffffffffffffff1916611afa90919063ffffffff16565b5b5f60208373ffffffffffffffffffffffffffffffffffffffff16901b90505f8190505f61138f82611b1c565b60ff169050608081106113aa57607f810383901c91506113b4565b80607f0383901b91505b5f604060808303901b9050828302607f1c92508260801c80603f1b8217915083811c935050828302607f1c92508260801c80603e1b8217915083811c935050828302607f1c92508260801c80603d1b8217915083811c935050828302607f1c92508260801c80603c1b8217915083811c935050828302607f1c92508260801c80603b1b8217915083811c935050828302607f1c92508260801c80603a1b8217915083811c935050828302607f1c92508260801c8060391b8217915083811c935050828302607f1c92508260801c8060381b8217915083811c935050828302607f1c92508260801c8060371b8217915083811c935050828302607f1c92508260801c8060361b8217915083811c935050828302607f1c92508260801c8060351b8217915083811c935050828302607f1c92508260801c8060341b8217915083811c935050828302607f1c92508260801c8060331b8217915083811c935050828302607f1c92508260801c8060321b82179150505f693627a301d71055774c85820290505f60806f028f6481ab7f045a5af012a19d003aaa8303901d90505f60806fdb2df09e81959a81455e260799a0632f8401901d90508060020b8260020b146115c0578873ffffffffffffffffffffffffffffffffffffffff1661159782611bc2565b73ffffffffffffffffffffffffffffffffffffffff1611156115b957816115bb565b805b6115c2565b815b975050505050505050919050565b5f808273ffffffffffffffffffffffffffffffffffffffff16845f015173ffffffffffffffffffffffffffffffffffffffff161490505f61161088611bc2565b90505f61161c88611bc2565b90505f83156116375761163083838a611f1c565b9050611645565b61164283838a611fd9565b90505b806fffffffffffffffffffffffffffffffff1694505050505095945050505050565b5f61167182611ad7565b90505f61167d83611ae3565b90505f82600f0b121561180e575f845f015190507f000000000000000000000000000000000000000000000000000000000000000073ffffffffffffffffffffffffffffffffffffffff1663a5841194826040518263ffffffff1660e01b81526004016116ea91906131ac565b5f604051808303815f87803b158015611701575f80fd5b505af1158015611713573d5f803e3d5ffd5b5050505061177d7f000000000000000000000000000000000000000000000000000000000000000084611745906131d1565b6fffffffffffffffffffffffffffffffff168373ffffffffffffffffffffffffffffffffffffffff1661205b9092919063ffffffff16565b7f000000000000000000000000000000000000000000000000000000000000000073ffffffffffffffffffffffffffffffffffffffff166311da60b46040518163ffffffff1660e01b81526004016020604051808303815f875af11580156117e7573d5f803e3d5ffd5b505050506040513d601f19601f8201168201806040525081019061180b9190613217565b50505b5f81600f0b121561199e575f846020015190507f000000000000000000000000000000000000000000000000000000000000000073ffffffffffffffffffffffffffffffffffffffff1663a5841194826040518263ffffffff1660e01b815260040161187a91906131ac565b5f604051808303815f87803b158015611891575f80fd5b505af11580156118a3573d5f803e3d5ffd5b5050505061190d7f0000000000000000000000000000000000000000000000000000000000000000836118d5906131d1565b6fffffffffffffffffffffffffffffffff168373ffffffffffffffffffffffffffffffffffffffff1661205b9092919063ffffffff16565b7f000000000000000000000000000000000000000000000000000000000000000073ffffffffffffffffffffffffffffffffffffffff166311da60b46040518163ffffffff1660e01b81526004016020604051808303815f875af1158015611977573d5f803e3d5ffd5b505050506040513d601f19601f8201168201806040525081019061199b9190613217565b50505b5f82600f0b1315611a37577f000000000000000000000000000000000000000000000000000000000000000073ffffffffffffffffffffffffffffffffffffffff16630b0d9c09855f015130856040518463ffffffff1660e01b8152600401611a0993929190613150565b5f604051808303815f87803b158015611a20575f80fd5b505af1158015611a32573d5f803e3d5ffd5b505050505b5f81600f0b1315611ad1577f000000000000000000000000000000000000000000000000000000000000000073ffffffffffffffffffffffffffffffffffffffff16630b0d9c09856020015130846040518463ffffffff1660e01b8152600401611aa393929190613150565b5f604051808303815f87803b158015611aba575f80fd5b505af1158015611acc573d5f803e3d5ffd5b505050505b50505050565b5f8160801d9050919050565b5f81600f0b9050919050565b5f8115159050919050565b815f5273ffffffffffffffffffffffffffffffffffffffff811660045260245ffd5b5f808211611b28575f80fd5b816fffffffffffffffffffffffffffffffff1060071b905081811c67ffffffffffffffff1060061b8117905081811c63ffffffff1060051b8117905081811c61ffff1060041b8117905081811c60ff1060031b811790507f07060605060205000602030205040001060502050303040105050304000000006f8421084210842108cc6318c6db6d54be83831c1c601f161a81179050919050565b5f808260020b92508260ff1d8381018118915050620d89e860020b811115611c1e57611c1d83638b86327a60e01b7bffffffffffffffffffffffffffffffffffffffffffffffffffffffff19166120ae90919063ffffffff16565b5b5f600182166ffffcb933bd6fad37aa2d162d1a594001600160801b1802600160801b1890505f6002831614611c675760806ffff97272373d413259a46990580e213a8202901c90505b5f6004831614611c8b5760806ffff2e50f5f656932ef12357cf3c7fdcc8202901c90505b5f6008831614611caf5760806fffe5caca7e10e4e61c3624eaa0941cd08202901c90505b5f6010831614611cd35760806fffcb9843d60f6159c9db58835c9266448202901c90505b5f6020831614611cf75760806fff973b41fa98c081472e6896dfb254c08202901c90505b5f6040831614611d1b5760806fff2ea16466c96a3843ec78b326b528618202901c90505b5f6080831614611d3f5760806ffe5dee046a99a2a811c461f1969c30538202901c90505b5f610100831614611d645760806ffcbe86c7900a88aedcffc83b479aa3a48202901c90505b5f610200831614611d895760806ff987a7253ac413176f2b074cf7815e548202901c90505b5f610400831614611dae5760806ff3392b0822b70005940c7a398e4b70f38202901c90505b5f610800831614611dd35760806fe7159475a2c29b7443b29c7fa6e889d98202901c90505b5f611000831614611df85760806fd097f3bdfd2022b8845ad8f792aa58258202901c90505b5f612000831614611e1d5760806fa9f746462d870fdf8a65dc1f90e061e58202901c90505b5f614000831614611e425760806f70d869a156d2a1b890bb3df62baf32f78202901c90505b5f618000831614611e675760806f31be135f97d08fd981231505542fcfa68202901c90505b5f62010000831614611e8d5760806f09aa508b5b7a84e1c677de54f3e99bc98202901c90505b5f62020000831614611eb25760806e5d6af8dedb81196699c329225ee6048202901c90505b5f62040000831614611ed65760806d2216e584f5fa1ea926041bedfe988202901c90505b5f62080000831614611ef85760806b048a170391f7dc42444e8fa28202901c90505b5f841315611f0757805f190490505b60018060201b03810160201c92505050919050565b5f8273ffffffffffffffffffffffffffffffffffffffff168473ffffffffffffffffffffffffffffffffffffffff161115611f5c57828480945081955050505b5f611fa18573ffffffffffffffffffffffffffffffffffffffff168573ffffffffffffffffffffffffffffffffffffffff166c0100000000000000000000000061107c565b9050611fcf83828787611fb49190613242565b73ffffffffffffffffffffffffffffffffffffffff1661107c565b9150509392505050565b5f8273ffffffffffffffffffffffffffffffffffffffff168473ffffffffffffffffffffffffffffffffffffffff16111561201957828480945081955050505b612052826c0100000000000000000000000086866120379190613242565b73ffffffffffffffffffffffffffffffffffffffff1661107c565b90509392505050565b61206883838360016120bd565b6120a957826040517f5274afe70000000000000000000000000000000000000000000000000000000081526004016120a09190612258565b60405180910390fd5b505050565b815f528060020b60045260245ffd5b5f8063a9059cbb60e01b9050604051815f525f1960601c86166004528460245260205f60445f808b5af1925060015f51148316612111578383151615612105573d5f823e3d81fd5b5f873b113d1516831692505b806040525050949350505050565b5f604051905090565b5f80fd5b5f80fd5b5f80fd5b5f60a0828403121561214957612148612130565b5b81905092915050565b5f60a0828403121561216757612166612128565b5b5f61217484828501612134565b91505092915050565b5f73ffffffffffffffffffffffffffffffffffffffff82169050919050565b5f6121a68261217d565b9050919050565b6121b68161219c565b81146121c0575f80fd5b50565b5f813590506121d1816121ad565b92915050565b5f80604083850312156121ed576121ec612128565b5b5f6121fa858286016121c3565b925050602061220b858286016121c3565b9150509250929050565b5f8160020b9050919050565b61222a81612215565b82525050565b5f6020820190506122435f830184612221565b92915050565b6122528161219c565b82525050565b5f60208201905061226b5f830184612249565b92915050565b5f819050919050565b5f61229461228f61228a8461217d565b612271565b61217d565b9050919050565b5f6122a58261227a565b9050919050565b5f6122b68261229b565b9050919050565b6122c6816122ac565b82525050565b5f6020820190506122df5f8301846122bd565b92915050565b5f80fd5b5f80fd5b5f80fd5b5f8083601f840112612306576123056122e5565b5b8235905067ffffffffffffffff811115612323576123226122e9565b5b60208301915083600182028301111561233f5761233e6122ed565b5b9250929050565b5f806020838503121561235c5761235b612128565b5b5f83013567ffffffffffffffff8111156123795761237861212c565b5b612385858286016122f1565b92509250509250929050565b5f81519050919050565b5f82825260208201905092915050565b8281835e5f83830152505050565b5f601f19601f8301169050919050565b5f6123d382612391565b6123dd818561239b565b93506123ed8185602086016123ab565b6123f6816123b9565b840191505092915050565b5f6020820190508181035f83015261241981846123c9565b905092915050565b5f61242b8261229b565b9050919050565b61243b81612421565b82525050565b5f6020820190506124545f830184612432565b92915050565b5f62ffffff82169050919050565b6124718161245a565b82525050565b5f60208201905061248a5f830184612468565b92915050565b5f602082840312156124a5576124a4612128565b5b5f6124b2848285016121c3565b91505092915050565b5f6124c58261229b565b9050919050565b6124d5816124bb565b82525050565b6124e48161245a565b82525050565b6124f381612215565b82525050565b61250281612421565b82525050565b60a082015f82015161251c5f8501826124cc565b50602082015161252f60208501826124cc565b50604082015161254260408501826124db565b50606082015161255560608501826124ea565b50608082015161256860808501826124f9565b50505050565b6125778161217d565b82525050565b5f60c0820190506125905f830185612508565b61259d60a083018461256e565b9392505050565b6125ad81612215565b81146125b7575f80fd5b50565b5f815190506125c8816125a4565b92915050565b5f602082840312156125e3576125e2612128565b5b5f6125f0848285016125ba565b91505092915050565b7f4e487b71000000000000000000000000000000000000000000000000000000005f52601260045260245ffd5b7f4e487b71000000000000000000000000000000000000000000000000000000005f52601160045260245ffd5b5f61265d82612215565b915061266883612215565b925082612678576126776125f9565b5b60015f0383147fffffffffffffffffffffffffffffffffffffffffffffffffffffffffff800000831416156126b0576126af612626565b5b828205905092915050565b5f6126c582612215565b91506126d083612215565b92508282026126de81612215565b91508082146126f0576126ef612626565b5b5092915050565b5f61270182612215565b915061270c83612215565b925082820190507fffffffffffffffffffffffffffffffffffffffffffffffffffffffffff8000008112627fffff8213171561274b5761274a612626565b5b92915050565b5f61275b82612215565b915061276683612215565b925082612776576127756125f9565b5b828207905092915050565b5f61278b82612215565b915061279683612215565b92508282039050627fffff81137fffffffffffffffffffffffffffffffffffffffffffffffffffffffffff800000821217156127d5576127d4612626565b5b92915050565b5f819050919050565b6127ed816127db565b82525050565b5f610120820190506128075f830188612508565b61281460a0830187612221565b61282160c0830186612221565b61282e60e0830185612249565b61283c6101008301846127e4565b9695505050505050565b7f4e487b71000000000000000000000000000000000000000000000000000000005f52602160045260245ffd5b6002811061288457612883612846565b5b50565b5f81905061289482612873565b919050565b5f6128a382612887565b9050919050565b6128b381612899565b82525050565b5f6040820190506128cc5f8301856128aa565b81810360208301526128de81846123c9565b90509392505050565b5f80fd5b7f4e487b71000000000000000000000000000000000000000000000000000000005f52604160045260245ffd5b612921826123b9565b810181811067ffffffffffffffff821117156129405761293f6128eb565b5b80604052505050565b5f61295261211f565b905061295e8282612918565b919050565b5f67ffffffffffffffff82111561297d5761297c6128eb565b5b612986826123b9565b9050602081019050919050565b5f6129a56129a084612963565b612949565b9050828152602081018484840111156129c1576129c06128e7565b5b6129cc8482856123ab565b509392505050565b5f82601f8301126129e8576129e76122e5565b5b81516129f8848260208601612993565b91505092915050565b5f60208284031215612a1657612a15612128565b5b5f82015167ffffffffffffffff811115612a3357612a3261212c565b5b612a3f848285016129d4565b91505092915050565b5f606082019050612a5b5f8301866127e4565b612a686020830185612221565b612a756040830184612221565b949350505050565b5f815f1c9050919050565b5f73ffffffffffffffffffffffffffffffffffffffff82169050919050565b5f612ab9612ab483612a7d565b612a88565b9050919050565b5f8160a01c9050919050565b5f62ffffff82169050919050565b5f612aec612ae783612ac0565b612acc565b9050919050565b5f8160b81c9050919050565b5f8160020b9050919050565b5f612b1d612b1883612af3565b612aff565b9050919050565b5f73ffffffffffffffffffffffffffffffffffffffff82169050919050565b5f612b55612b5083612a7d565b612b24565b9050919050565b60a082015f808301549050612b7081612aa7565b612b7c5f8601826124cc565b5060018301549050612b8d81612aa7565b612b9a60208601826124cc565b50612ba481612ada565b612bb160408601826124db565b50612bbb81612b0b565b612bc860608601826124ea565b5060028301549050612bd981612b43565b612be660808601826124f9565b5050505050565b5f61012082019050612c015f830188612249565b612c0e6020830187612249565b612c1b6040830186612b5c565b612c2860e0830185612221565b612c36610100830184612221565b9695505050505050565b60028110612c4c575f80fd5b50565b5f81359050612c5d81612c40565b92915050565b828183375f83830152505050565b5f612c83612c7e84612963565b612949565b905082815260208101848484011115612c9f57612c9e6128e7565b5b612caa848285612c63565b509392505050565b5f82601f830112612cc657612cc56122e5565b5b8135612cd6848260208601612c71565b91505092915050565b5f8060408385031215612cf557612cf4612128565b5b5f612d0285828601612c4f565b925050602083013567ffffffffffffffff811115612d2357612d2261212c565b5b612d2f85828601612cb2565b9150509250929050565b5f80fd5b612d468161219c565b8114612d50575f80fd5b50565b5f81519050612d6181612d3d565b92915050565b612d708161245a565b8114612d7a575f80fd5b50565b5f81519050612d8b81612d67565b92915050565b5f612d9b8261219c565b9050919050565b612dab81612d91565b8114612db5575f80fd5b50565b5f81519050612dc681612da2565b92915050565b5f60a08284031215612de157612de0612d39565b5b612deb60a0612949565b90505f612dfa84828501612d53565b5f830152506020612e0d84828501612d53565b6020830152506040612e2184828501612d7d565b6040830152506060612e35848285016125ba565b6060830152506080612e4984828501612db8565b60808301525092915050565b5f612e5f8261217d565b9050919050565b612e6f81612e55565b8114612e79575f80fd5b50565b5f81519050612e8a81612e66565b92915050565b612e99816127db565b8114612ea3575f80fd5b50565b5f81519050612eb481612e90565b92915050565b5f805f805f6101208688031215612ed457612ed3612128565b5b5f612ee188828901612dcc565b95505060a0612ef2888289016125ba565b94505060c0612f03888289016125ba565b93505060e0612f1488828901612e7c565b925050610100612f2688828901612ea6565b9150509295509295909350565b5f819050919050565b612f4581612f33565b82525050565b5f819050919050565b612f5d81612f4b565b82525050565b608082015f820151612f775f8501826124ea565b506020820151612f8a60208501826124ea565b506040820151612f9d6040850182612f3c565b506060820151612fb06060850182612f54565b50505050565b50565b5f612fc45f8361239b565b9150612fcf82612fb6565b5f82019050919050565b5f61014082019050612fed5f830185612508565b612ffa60a0830184612f63565b81810361012083015261300c81612fb9565b90509392505050565b61301e81612f33565b8114613028575f80fd5b50565b5f8151905061303981613015565b92915050565b5f806040838503121561305557613054612128565b5b5f6130628582860161302b565b92505060206130738582860161302b565b9150509250929050565b5f805f805f610120868803121561309757613096612128565b5b5f6130a488828901612e7c565b95505060206130b588828901612e7c565b94505060406130c688828901612dcc565b93505060e06130d7888289016125ba565b9250506101006130e9888289016125ba565b9150509295509295909350565b6130ff816124bb565b82525050565b5f6fffffffffffffffffffffffffffffffff82169050919050565b5f61313a61313561313084613105565b612271565b6127db565b9050919050565b61314a81613120565b82525050565b5f6060820190506131635f8301866130f6565b6131706020830185612249565b61317d6040830184613141565b949350505050565b5f6040820190506131985f8301856127e4565b6131a560208301846127e4565b9392505050565b5f6020820190506131bf5f8301846130f6565b92915050565b5f81600f0b9050919050565b5f6131db826131c5565b91507fffffffffffffffffffffffffffffffff80000000000000000000000000000000820361320d5761320c612626565b5b815f039050919050565b5f6020828403121561322c5761322b612128565b5b5f61323984828501612ea6565b91505092915050565b5f61324c8261217d565b91506132578361217d565b9250828203905073ffffffffffffffffffffffffffffffffffffffff81111561328357613282612626565b5b9291505056fea2646970667358221220999d2253b349c544069f3094ffb5294265dd90cf121fc6fdc964bd3c5eb2ee7a64736f6c634300081a0033","linkReferences":{}},"methodIdentifiers":{"IDO()":"4c097e15","POOL_FEE()":"dd1b9c4a","POOL_MANAGER()":"62308e85","SWAP_FEE_HOOK()":"cf9f24cb","TICK_SPACING()":"46ca626b","allocate((address,address,uint256,uint256,uint256))":"317b84c1","collectFees(address,address)":"3c9b4522","unlockCallback(bytes)":"91dd7346"},"id":93}