{"abi":[{"type":"constructor","inputs":[],"stateMutability":"nonpayable"},{"type":"function","name":"DOMAIN_SEPARATOR","inputs":[],"outputs":[{"name":"","type":"bytes32","internalType":"bytes32"}],"stateMutability":"view"},{"type":"function","name":"TOTAL_SUPPLY","inputs":[],"outputs":[{"name":"","type":"uint256","internalType":"uint256"}],"stateMutability":"view"},{"type":"function","name":"allowance","inputs":[{"name":"owner","type":"address","internalType":"address"},{"name":"spender","type":"address","internalType":"address"}],"outputs":[{"name":"","type":"uint256","internalType":"uint256"}],"stateMutability":"view"},{"type":"function","name":"approve","inputs":[{"name":"spender","type":"address","internalType":"address"},{"name":"value","type":"uint256","internalType":"uint256"}],"outputs":[{"name":"","type":"bool","internalType":"bool"}],"stateMutability":"nonpayable"},{"type":"function","name":"balanceOf","inputs":[{"name":"account","type":"address","internalType":"address"}],"outputs":[{"name":"","type":"uint256","internalType":"uint256"}],"stateMutability":"view"},{"type":"function","name":"burn","inputs":[{"name":"value","type":"uint256","internalType":"uint256"}],"outputs":[],"stateMutability":"nonpayable"},{"type":"function","name":"burnFrom","inputs":[{"name":"account","type":"address","internalType":"address"},{"name":"value","type":"uint256","internalType":"uint256"}],"outputs":[],"stateMutability":"nonpayable"},{"type":"function","name":"decimals","inputs":[],"outputs":[{"name":"","type":"uint8","internalType":"uint8"}],"stateMutability":"view"},{"type":"function","name":"ido","inputs":[],"outputs":[{"name":"","type":"address","internalType":"address"}],"stateMutability":"view"},{"type":"function","name":"initialize","inputs":[{"name":"tokenName","type":"string","internalType":"string"},{"name":"tokenSymbol","type":"string","internalType":"string"},{"name":"tokenURI","type":"string","internalType":"string"},{"name":"mintTo","type":"address","internalType":"address"}],"outputs":[],"stateMutability":"nonpayable"},{"type":"function","name":"name","inputs":[],"outputs":[{"name":"","type":"string","internalType":"string"}],"stateMutability":"view"},{"type":"function","name":"nonces","inputs":[{"name":"owner","type":"address","internalType":"address"}],"outputs":[{"name":"","type":"uint256","internalType":"uint256"}],"stateMutability":"view"},{"type":"function","name":"permit","inputs":[{"name":"owner","type":"address","internalType":"address"},{"name":"spender","type":"address","internalType":"address"},{"name":"value","type":"uint256","internalType":"uint256"},{"name":"deadline","type":"uint256","internalType":"uint256"},{"name":"v","type":"uint8","internalType":"uint8"},{"name":"r","type":"bytes32","internalType":"bytes32"},{"name":"s","type":"bytes32","internalType":"bytes32"}],"outputs":[],"stateMutability":"nonpayable"},{"type":"function","name":"symbol","inputs":[],"outputs":[{"name":"","type":"string","internalType":"string"}],"stateMutability":"view"},{"type":"function","name":"tokenURI","inputs":[],"outputs":[{"name":"","type":"string","internalType":"string"}],"stateMutability":"view"},{"type":"function","name":"totalSupply","inputs":[],"outputs":[{"name":"","type":"uint256","internalType":"uint256"}],"stateMutability":"view"},{"type":"function","name":"transfer","inputs":[{"name":"to","type":"address","internalType":"address"},{"name":"value","type":"uint256","internalType":"uint256"}],"outputs":[{"name":"","type":"bool","internalType":"bool"}],"stateMutability":"nonpayable"},{"type":"function","name":"transferFrom","inputs":[{"name":"from","type":"address","internalType":"address"},{"name":"to","type":"address","internalType":"address"},{"name":"value","type":"uint256","internalType":"uint256"}],"outputs":[{"name":"","type":"bool","internalType":"bool"}],"stateMutability":"nonpayable"},{"type":"event","name":"Approval","inputs":[{"name":"owner","type":"address","indexed":true,"internalType":"address"},{"name":"spender","type":"address","indexed":true,"internalType":"address"},{"name":"value","type":"uint256","indexed":false,"internalType":"uint256"}],"anonymous":false},{"type":"event","name":"Transfer","inputs":[{"name":"from","type":"address","indexed":true,"internalType":"address"},{"name":"to","type":"address","indexed":true,"internalType":"address"},{"name":"value","type":"uint256","indexed":false,"internalType":"uint256"}],"anonymous":false},{"type":"error","name":"AlreadyInitialized","inputs":[]},{"type":"error","name":"ECDSAInvalidSignature","inputs":[]},{"type":"error","name":"ECDSAInvalidSignatureLength","inputs":[{"name":"length","type":"uint256","internalType":"uint256"}]},{"type":"error","name":"ECDSAInvalidSignatureS","inputs":[{"name":"s","type":"bytes32","internalType":"bytes32"}]},{"type":"error","name":"ERC20InsufficientAllowance","inputs":[{"name":"spender","type":"address","internalType":"address"},{"name":"allowance","type":"uint256","internalType":"uint256"},{"name":"needed","type":"uint256","internalType":"uint256"}]},{"type":"error","name":"ERC20InsufficientBalance","inputs":[{"name":"sender","type":"address","internalType":"address"},{"name":"balance","type":"uint256","internalType":"uint256"},{"name":"needed","type":"uint256","internalType":"uint256"}]},{"type":"error","name":"ERC20InvalidApprover","inputs":[{"name":"approver","type":"address","internalType":"address"}]},{"type":"error","name":"ERC20InvalidReceiver","inputs":[{"name":"receiver","type":"address","internalType":"address"}]},{"type":"error","name":"ERC20InvalidSender","inputs":[{"name":"sender","type":"address","internalType":"address"}]},{"type":"error","name":"ERC20InvalidSpender","inputs":[{"name":"spender","type":"address","internalType":"address"}]}],"bytecode":{"object":"0x60c060405234801561000f575f80fd5b5060405180602001604052805f81525060405180602001604052805f815250816003908161003d91906102cb565b50806004908161004d91906102cb565b50505046608081815250503073ffffffffffffffffffffffffffffffffffffffff1660a08173ffffffffffffffffffffffffffffffffffffffff168152505061039a565b5f81519050919050565b7f4e487b71000000000000000000000000000000000000000000000000000000005f52604160045260245ffd5b7f4e487b71000000000000000000000000000000000000000000000000000000005f52602260045260245ffd5b5f600282049050600182168061010c57607f821691505b60208210810361011f5761011e6100c8565b5b50919050565b5f819050815f5260205f209050919050565b5f6020601f8301049050919050565b5f82821b905092915050565b5f600883026101817fffffffffffffffffffffffffffffffffffffffffffffffffffffffffffffffff82610146565b61018b8683610146565b95508019841693508086168417925050509392505050565b5f819050919050565b5f819050919050565b5f6101cf6101ca6101c5846101a3565b6101ac565b6101a3565b9050919050565b5f819050919050565b6101e8836101b5565b6101fc6101f4826101d6565b848454610152565b825550505050565b5f90565b610210610204565b61021b8184846101df565b505050565b5b8181101561023e576102335f82610208565b600181019050610221565b5050565b601f8211156102835761025481610125565b61025d84610137565b8101602085101561026c578190505b61028061027885610137565b830182610220565b50505b505050565b5f82821c905092915050565b5f6102a35f1984600802610288565b1980831691505092915050565b5f6102bb8383610294565b9150826002028217905092915050565b6102d482610091565b67ffffffffffffffff8111156102ed576102ec61009b565b5b6102f782546100f5565b610302828285610242565b5f60209050601f831160018114610333575f8415610321578287015190505b61032b85826102b0565b865550610392565b601f19841661034186610125565b5f5b8281101561036857848901518255600182019150602085019450602081019050610343565b868310156103855784890151610381601f891682610294565b8355505b6001600288020188555050505b505050505050565b60805160a0516121c46103bb5f395f610b6b01525f610bc101526121c45ff3fe608060405234801561000f575f80fd5b5060043610610114575f3560e01c806370a08231116100a057806395d89b411161006f57806395d89b41146102e0578063a9059cbb146102fe578063d505accf1461032e578063dd62ed3e1461034a578063eeb522aa1461037a57610114565b806370a082311461024657806379cc6790146102765780637ecebe0014610292578063902d55a5146102c257610114565b8063313ce567116100e7578063313ce567146101b45780633644e515146101d25780633c130d90146101f057806342966c681461020e5780635c6d8da11461022a57610114565b806306fdde0314610118578063095ea7b31461013657806318160ddd1461016657806323b872dd14610184575b5f80fd5b610120610398565b60405161012d9190611549565b60405180910390f35b610150600480360381019061014b91906115fe565b610428565b60405161015d9190611656565b60405180910390f35b61016e61044a565b60405161017b919061167e565b60405180910390f35b61019e60048036038101906101999190611697565b610453565b6040516101ab9190611656565b60405180910390f35b6101bc610481565b6040516101c99190611702565b60405180910390f35b6101da610489565b6040516101e79190611733565b60405180910390f35b6101f8610497565b6040516102059190611549565b60405180910390f35b6102286004803603810190610223919061174c565b610527565b005b610244600480360381019061023f91906117d8565b61053b565b005b610260600480360381019061025b919061189c565b610679565b60405161026d919061167e565b60405180910390f35b610290600480360381019061028b91906115fe565b6106be565b005b6102ac60048036038101906102a7919061189c565b6106de565b6040516102b9919061167e565b60405180910390f35b6102ca610724565b6040516102d7919061167e565b60405180910390f35b6102e8610734565b6040516102f59190611549565b60405180910390f35b610318600480360381019061031391906115fe565b6107c4565b6040516103259190611656565b60405180910390f35b6103486004803603810190610343919061191b565b6107e6565b005b610364600480360381019061035f91906119b8565b610925565b604051610371919061167e565b60405180910390f35b6103826109a7565b60405161038f9190611a05565b60405180910390f35b6060600680546103a790611a4b565b80601f01602080910402602001604051908101604052809291908181526020018280546103d390611a4b565b801561041e5780601f106103f55761010080835404028352916020019161041e565b820191905f5260205f20905b81548152906001019060200180831161040157829003601f168201915b5050505050905090565b5f806104326109cc565b905061043f8185856109d3565b600191505092915050565b5f600254905090565b5f8061045d6109cc565b905061046a8582856109e5565b610475858585610a78565b60019150509392505050565b5f6012905090565b5f610492610b68565b905090565b6060600880546104a690611a4b565b80601f01602080910402602001604051908101604052809291908181526020018280546104d290611a4b565b801561051d5780601f106104f45761010080835404028352916020019161051d565b820191905f5260205f20905b81548152906001019060200180831161050057829003601f168201915b5050505050905090565b6105386105326109cc565b82610c38565b50565b600560149054906101000a900460ff1615610582576040517f0dc149f000000000000000000000000000000000000000000000000000000000815260040160405180910390fd5b6001600560146101000a81548160ff0219169083151502179055503360055f6101000a81548173ffffffffffffffffffffffffffffffffffffffff021916908373ffffffffffffffffffffffffffffffffffffffff1602179055508686600691826105ee929190611c4f565b50848460079182610600929190611c4f565b50828260089182610612929190611c4f565b50610629816b033b2e3c9fd0803ce8000000610cb7565b61066a7f8b73c3c69bb8fe3d512ecc4cf759cc79239f7b179b0ffacaa9a75d522b39400f888860405161065d929190611d58565b6040518091039020610d36565b60098190555050505050505050565b5f805f8373ffffffffffffffffffffffffffffffffffffffff1673ffffffffffffffffffffffffffffffffffffffff1681526020019081526020015f20549050919050565b6106d0826106ca6109cc565b836109e5565b6106da8282610c38565b5050565b5f600a5f8373ffffffffffffffffffffffffffffffffffffffff1673ffffffffffffffffffffffffffffffffffffffff1681526020019081526020015f20549050919050565b6b033b2e3c9fd0803ce800000081565b60606007805461074390611a4b565b80601f016020809104026020016040519081016040528092919081815260200182805461076f90611a4b565b80156107ba5780601f10610791576101008083540402835291602001916107ba565b820191905f5260205f20905b81548152906001019060200180831161079d57829003601f168201915b5050505050905090565b5f806107ce6109cc565b90506107db818585610a78565b600191505092915050565b83421115610829576040517f08c379a000000000000000000000000000000000000000000000000000000000815260040161082090611dba565b60405180910390fd5b5f7f6e71edae12b1b97f4d1f60370fef10105fa2faae0126114a169c64845d6126c98888886108578c610daa565b8960405160200161086d96959493929190611dd8565b6040516020818303038152906040528051906020012090505f61088f82610e42565b90505f61089e82878787610e7a565b90508973ffffffffffffffffffffffffffffffffffffffff168173ffffffffffffffffffffffffffffffffffffffff161461090e576040517f08c379a000000000000000000000000000000000000000000000000000000000815260040161090590611e81565b60405180910390fd5b6109198a8a8a6109d3565b50505050505050505050565b5f60015f8473ffffffffffffffffffffffffffffffffffffffff1673ffffffffffffffffffffffffffffffffffffffff1681526020019081526020015f205f8373ffffffffffffffffffffffffffffffffffffffff1673ffffffffffffffffffffffffffffffffffffffff1681526020019081526020015f2054905092915050565b60055f9054906101000a900473ffffffffffffffffffffffffffffffffffffffff1681565b5f33905090565b6109e08383836001610ea8565b505050565b5f6109f08484610925565b90507fffffffffffffffffffffffffffffffffffffffffffffffffffffffffffffffff811015610a725781811015610a63578281836040517ffb8f41b2000000000000000000000000000000000000000000000000000000008152600401610a5a93929190611e9f565b60405180910390fd5b610a7184848484035f610ea8565b5b50505050565b5f73ffffffffffffffffffffffffffffffffffffffff168373ffffffffffffffffffffffffffffffffffffffff1603610ae8575f6040517f96c6fd1e000000000000000000000000000000000000000000000000000000008152600401610adf9190611a05565b60405180910390fd5b5f73ffffffffffffffffffffffffffffffffffffffff168273ffffffffffffffffffffffffffffffffffffffff1603610b58575f6040517fec442f05000000000000000000000000000000000000000000000000000000008152600401610b4f9190611a05565b60405180910390fd5b610b63838383611077565b505050565b5f7f000000000000000000000000000000000000000000000000000000000000000073ffffffffffffffffffffffffffffffffffffffff163073ffffffffffffffffffffffffffffffffffffffff16148015610be357507f000000000000000000000000000000000000000000000000000000000000000046145b15610bf2576009549050610c35565b610c327f8b73c3c69bb8fe3d512ecc4cf759cc79239f7b179b0ffacaa9a75d522b39400f6006604051610c259190611f66565b6040518091039020610d36565b90505b90565b5f73ffffffffffffffffffffffffffffffffffffffff168273ffffffffffffffffffffffffffffffffffffffff1603610ca8575f6040517f96c6fd1e000000000000000000000000000000000000000000000000000000008152600401610c9f9190611a05565b60405180910390fd5b610cb3825f83611077565b5050565b5f73ffffffffffffffffffffffffffffffffffffffff168273ffffffffffffffffffffffffffffffffffffffff1603610d27575f6040517fec442f05000000000000000000000000000000000000000000000000000000008152600401610d1e9190611a05565b60405180910390fd5b610d325f8383611077565b5050565b5f82826040518060400160405280600181526020017f3100000000000000000000000000000000000000000000000000000000000000815250805190602001204630604051602001610d8c959493929190611f7c565b60405160208183030381529060405280519060200120905092915050565b5f600a5f8373ffffffffffffffffffffffffffffffffffffffff1673ffffffffffffffffffffffffffffffffffffffff1681526020019081526020015f20549050600a5f8373ffffffffffffffffffffffffffffffffffffffff1673ffffffffffffffffffffffffffffffffffffffff1681526020019081526020015f205f815480929190610e3890611ffa565b9190505550919050565b5f610e4b610b68565b82604051602001610e5d9291906120b5565b604051602081830303815290604052805190602001209050919050565b5f805f80610e8a88888888611290565b925092509250610e9a8282611377565b829350505050949350505050565b5f73ffffffffffffffffffffffffffffffffffffffff168473ffffffffffffffffffffffffffffffffffffffff1603610f18575f6040517fe602df05000000000000000000000000000000000000000000000000000000008152600401610f0f9190611a05565b60405180910390fd5b5f73ffffffffffffffffffffffffffffffffffffffff168373ffffffffffffffffffffffffffffffffffffffff1603610f88575f6040517f94280d62000000000000000000000000000000000000000000000000000000008152600401610f7f9190611a05565b60405180910390fd5b8160015f8673ffffffffffffffffffffffffffffffffffffffff1673ffffffffffffffffffffffffffffffffffffffff1681526020019081526020015f205f8573ffffffffffffffffffffffffffffffffffffffff1673ffffffffffffffffffffffffffffffffffffffff1681526020019081526020015f20819055508015611071578273ffffffffffffffffffffffffffffffffffffffff168473ffffffffffffffffffffffffffffffffffffffff167f8c5be1e5ebec7d5bd14f71427d1e84f3dd0314c0f7b2291e5b200ac8c7c3b92584604051611068919061167e565b60405180910390a35b50505050565b5f73ffffffffffffffffffffffffffffffffffffffff168373ffffffffffffffffffffffffffffffffffffffff16036110c7578060025f8282546110bb91906120eb565b92505081905550611195565b5f805f8573ffffffffffffffffffffffffffffffffffffffff1673ffffffffffffffffffffffffffffffffffffffff1681526020019081526020015f2054905081811015611150578381836040517fe450d38c00000000000000000000000000000000000000000000000000000000815260040161114793929190611e9f565b60405180910390fd5b8181035f808673ffffffffffffffffffffffffffffffffffffffff1673ffffffffffffffffffffffffffffffffffffffff1681526020019081526020015f2081905550505b5f73ffffffffffffffffffffffffffffffffffffffff168273ffffffffffffffffffffffffffffffffffffffff16036111dc578060025f8282540392505081905550611226565b805f808473ffffffffffffffffffffffffffffffffffffffff1673ffffffffffffffffffffffffffffffffffffffff1681526020019081526020015f205f82825401925050819055505b8173ffffffffffffffffffffffffffffffffffffffff168373ffffffffffffffffffffffffffffffffffffffff167fddf252ad1be2c89b69c2b068fc378daa952ba7f163c4a11628f55a4df523b3ef83604051611283919061167e565b60405180910390a3505050565b5f805f7f7fffffffffffffffffffffffffffffff5d576e7357a4501ddfe92f46681b20a0845f1c11156112cc575f60038592509250925061136d565b5f6001888888886040515f81526020016040526040516112ef949392919061211e565b6020604051602081039080840390855afa15801561130f573d5f803e3d5ffd5b5050506020604051035190505f73ffffffffffffffffffffffffffffffffffffffff168173ffffffffffffffffffffffffffffffffffffffff1603611360575f60015f801b9350935093505061136d565b805f805f1b935093509350505b9450945094915050565b5f600381111561138a57611389612161565b5b82600381111561139d5761139c612161565b5b03156114d557600160038111156113b7576113b6612161565b5b8260038111156113ca576113c9612161565b5b03611401576040517ff645eedf00000000000000000000000000000000000000000000000000000000815260040160405180910390fd5b6002600381111561141557611414612161565b5b82600381111561142857611427612161565b5b0361146c57805f1c6040517ffce698f7000000000000000000000000000000000000000000000000000000008152600401611463919061167e565b60405180910390fd5b60038081111561147f5761147e612161565b5b82600381111561149257611491612161565b5b036114d457806040517fd78bce0c0000000000000000000000000000000000000000000000000000000081526004016114cb9190611733565b60405180910390fd5b5b5050565b5f81519050919050565b5f82825260208201905092915050565b8281835e5f83830152505050565b5f601f19601f8301169050919050565b5f61151b826114d9565b61152581856114e3565b93506115358185602086016114f3565b61153e81611501565b840191505092915050565b5f6020820190508181035f8301526115618184611511565b905092915050565b5f80fd5b5f80fd5b5f73ffffffffffffffffffffffffffffffffffffffff82169050919050565b5f61159a82611571565b9050919050565b6115aa81611590565b81146115b4575f80fd5b50565b5f813590506115c5816115a1565b92915050565b5f819050919050565b6115dd816115cb565b81146115e7575f80fd5b50565b5f813590506115f8816115d4565b92915050565b5f806040838503121561161457611613611569565b5b5f611621858286016115b7565b9250506020611632858286016115ea565b9150509250929050565b5f8115159050919050565b6116508161163c565b82525050565b5f6020820190506116695f830184611647565b92915050565b611678816115cb565b82525050565b5f6020820190506116915f83018461166f565b92915050565b5f805f606084860312156116ae576116ad611569565b5b5f6116bb868287016115b7565b93505060206116cc868287016115b7565b92505060406116dd868287016115ea565b9150509250925092565b5f60ff82169050919050565b6116fc816116e7565b82525050565b5f6020820190506117155f8301846116f3565b92915050565b5f819050919050565b61172d8161171b565b82525050565b5f6020820190506117465f830184611724565b92915050565b5f6020828403121561176157611760611569565b5b5f61176e848285016115ea565b91505092915050565b5f80fd5b5f80fd5b5f80fd5b5f8083601f84011261179857611797611777565b5b8235905067ffffffffffffffff8111156117b5576117b461177b565b5b6020830191508360018202830111156117d1576117d061177f565b5b9250929050565b5f805f805f805f6080888a0312156117f3576117f2611569565b5b5f88013567ffffffffffffffff8111156118105761180f61156d565b5b61181c8a828b01611783565b9750975050602088013567ffffffffffffffff81111561183f5761183e61156d565b5b61184b8a828b01611783565b9550955050604088013567ffffffffffffffff81111561186e5761186d61156d565b5b61187a8a828b01611783565b9350935050606061188d8a828b016115b7565b91505092959891949750929550565b5f602082840312156118b1576118b0611569565b5b5f6118be848285016115b7565b91505092915050565b6118d0816116e7565b81146118da575f80fd5b50565b5f813590506118eb816118c7565b92915050565b6118fa8161171b565b8114611904575f80fd5b50565b5f81359050611915816118f1565b92915050565b5f805f805f805f60e0888a03121561193657611935611569565b5b5f6119438a828b016115b7565b97505060206119548a828b016115b7565b96505060406119658a828b016115ea565b95505060606119768a828b016115ea565b94505060806119878a828b016118dd565b93505060a06119988a828b01611907565b92505060c06119a98a828b01611907565b91505092959891949750929550565b5f80604083850312156119ce576119cd611569565b5b5f6119db858286016115b7565b92505060206119ec858286016115b7565b9150509250929050565b6119ff81611590565b82525050565b5f602082019050611a185f8301846119f6565b92915050565b7f4e487b71000000000000000000000000000000000000000000000000000000005f52602260045260245ffd5b5f6002820490506001821680611a6257607f821691505b602082108103611a7557611a74611a1e565b5b50919050565b5f82905092915050565b7f4e487b71000000000000000000000000000000000000000000000000000000005f52604160045260245ffd5b5f819050815f5260205f209050919050565b5f6020601f8301049050919050565b5f82821b905092915050565b5f60088302611b0e7fffffffffffffffffffffffffffffffffffffffffffffffffffffffffffffffff82611ad3565b611b188683611ad3565b95508019841693508086168417925050509392505050565b5f819050919050565b5f611b53611b4e611b49846115cb565b611b30565b6115cb565b9050919050565b5f819050919050565b611b6c83611b39565b611b80611b7882611b5a565b848454611adf565b825550505050565b5f90565b611b94611b88565b611b9f818484611b63565b505050565b5b81811015611bc257611bb75f82611b8c565b600181019050611ba5565b5050565b601f821115611c0757611bd881611ab2565b611be184611ac4565b81016020851015611bf0578190505b611c04611bfc85611ac4565b830182611ba4565b50505b505050565b5f82821c905092915050565b5f611c275f1984600802611c0c565b1980831691505092915050565b5f611c3f8383611c18565b9150826002028217905092915050565b611c598383611a7b565b67ffffffffffffffff811115611c7257611c71611a85565b5b611c7c8254611a4b565b611c87828285611bc6565b5f601f831160018114611cb4575f8415611ca2578287013590505b611cac8582611c34565b865550611d13565b601f198416611cc286611ab2565b5f5b82811015611ce957848901358255600182019150602085019450602081019050611cc4565b86831015611d065784890135611d02601f891682611c18565b8355505b6001600288020188555050505b50505050505050565b5f81905092915050565b828183375f83830152505050565b5f611d3f8385611d1c565b9350611d4c838584611d26565b82840190509392505050565b5f611d64828486611d34565b91508190509392505050565b7f45524332305065726d69743a206578706972656420646561646c696e650000005f82015250565b5f611da4601d836114e3565b9150611daf82611d70565b602082019050919050565b5f6020820190508181035f830152611dd181611d98565b9050919050565b5f60c082019050611deb5f830189611724565b611df860208301886119f6565b611e0560408301876119f6565b611e12606083018661166f565b611e1f608083018561166f565b611e2c60a083018461166f565b979650505050505050565b7f45524332305065726d69743a20696e76616c6964207369676e617475726500005f82015250565b5f611e6b601e836114e3565b9150611e7682611e37565b602082019050919050565b5f6020820190508181035f830152611e9881611e5f565b9050919050565b5f606082019050611eb25f8301866119f6565b611ebf602083018561166f565b611ecc604083018461166f565b949350505050565b5f819050815f5260205f209050919050565b5f8154611ef281611a4b565b611efc8186611d1c565b9450600182165f8114611f165760018114611f2b57611f5d565b60ff1983168652811515820286019350611f5d565b611f3485611ed4565b5f5b83811015611f5557815481890152600182019150602081019050611f36565b838801955050505b50505092915050565b5f611f718284611ee6565b915081905092915050565b5f60a082019050611f8f5f830188611724565b611f9c6020830187611724565b611fa96040830186611724565b611fb6606083018561166f565b611fc360808301846119f6565b9695505050505050565b7f4e487b71000000000000000000000000000000000000000000000000000000005f52601160045260245ffd5b5f612004826115cb565b91507fffffffffffffffffffffffffffffffffffffffffffffffffffffffffffffffff820361203657612035611fcd565b5b600182019050919050565b5f81905092915050565b7f19010000000000000000000000000000000000000000000000000000000000005f82015250565b5f61207f600283612041565b915061208a8261204b565b600282019050919050565b5f819050919050565b6120af6120aa8261171b565b612095565b82525050565b5f6120bf82612073565b91506120cb828561209e565b6020820191506120db828461209e565b6020820191508190509392505050565b5f6120f5826115cb565b9150612100836115cb565b925082820190508082111561211857612117611fcd565b5b92915050565b5f6080820190506121315f830187611724565b61213e60208301866116f3565b61214b6040830185611724565b6121586060830184611724565b95945050505050565b7f4e487b71000000000000000000000000000000000000000000000000000000005f52602160045260245ffdfea26469706673582212208c817695e0280c7d9fdf009a2abe9b7b10d0e33267a6ca598329a1890f3c5aba64736f6c634300081a0033","linkReferences":{}},"methodIdentifiers":{"DOMAIN_SEPARATOR()":"3644e515","TOTAL_SUPPLY()":"902d55a5","allowance(address,address)":"dd62ed3e","approve(address,uint256)":"095ea7b3","balanceOf(address)":"70a08231","burn(uint256)":"42966c68","burnFrom(address,uint256)":"79cc6790","decimals()":"313ce567","ido()":"eeb522aa","initialize(string,string,string,address)":"5c6d8da1","name()":"06fdde03","nonces(address)":"7ecebe00","permit(address,address,uint256,uint256,uint8,bytes32,bytes32)":"d505accf","symbol()":"95d89b41","tokenURI()":"3c130d90","totalSupply()":"18160ddd","transfer(address,uint256)":"a9059cbb","transferFrom(address,address,uint256)":"23b872dd"},"id":94}