{"abi":[{"type":"constructor","inputs":[{"name":"_poolManager","type":"address","internalType":"contract IPoolManager"},{"name":"_usdc","type":"address","internalType":"address"},{"name":"_protocolTreasury","type":"address","internalType":"address"}],"stateMutability":"nonpayable"},{"type":"function","name":"FEE_BPS","inputs":[],"outputs":[{"name":"","type":"uint256","internalType":"uint256"}],"stateMutability":"view"},{"type":"function","name":"POOL_MANAGER","inputs":[],"outputs":[{"name":"","type":"address","internalType":"contract IPoolManager"}],"stateMutability":"view"},{"type":"function","name":"PROTOCOL_TREASURY","inputs":[],"outputs":[{"name":"","type":"address","internalType":"address"}],"stateMutability":"view"},{"type":"function","name":"USDC","inputs":[],"outputs":[{"name":"","type":"address","internalType":"address"}],"stateMutability":"view"},{"type":"function","name":"afterAddLiquidity","inputs":[{"name":"","type":"address","internalType":"address"},{"name":"","type":"tuple","internalType":"struct PoolKey","components":[{"name":"currency0","type":"address","internalType":"Currency"},{"name":"currency1","type":"address","internalType":"Currency"},{"name":"fee","type":"uint24","internalType":"uint24"},{"name":"tickSpacing","type":"int24","internalType":"int24"},{"name":"hooks","type":"address","internalType":"contract IHooks"}]},{"name":"","type":"tuple","internalType":"struct IPoolManager.ModifyLiquidityParams","components":[{"name":"tickLower","type":"int24","internalType":"int24"},{"name":"tickUpper","type":"int24","internalType":"int24"},{"name":"liquidityDelta","type":"int256","internalType":"int256"},{"name":"salt","type":"bytes32","internalType":"bytes32"}]},{"name":"","type":"int256","internalType":"BalanceDelta"},{"name":"","type":"int256","internalType":"BalanceDelta"},{"name":"","type":"bytes","internalType":"bytes"}],"outputs":[{"name":"","type":"bytes4","internalType":"bytes4"},{"name":"","type":"int256","internalType":"BalanceDelta"}],"stateMutability":"pure"},{"type":"function","name":"afterDonate","inputs":[{"name":"","type":"address","internalType":"address"},{"name":"","type":"tuple","internalType":"struct PoolKey","components":[{"name":"currency0","type":"address","internalType":"Currency"},{"name":"currency1","type":"address","internalType":"Currency"},{"name":"fee","type":"uint24","internalType":"uint24"},{"name":"tickSpacing","type":"int24","internalType":"int24"},{"name":"hooks","type":"address","internalType":"contract IHooks"}]},{"name":"","type":"uint256","internalType":"uint256"},{"name":"","type":"uint256","internalType":"uint256"},{"name":"","type":"bytes","internalType":"bytes"}],"outputs":[{"name":"","type":"bytes4","internalType":"bytes4"}],"stateMutability":"pure"},{"type":"function","name":"afterInitialize","inputs":[{"name":"","type":"address","internalType":"address"},{"name":"","type":"tuple","internalType":"struct PoolKey","components":[{"name":"currency0","type":"address","internalType":"Currency"},{"name":"currency1","type":"address","internalType":"Currency"},{"name":"fee","type":"uint24","internalType":"uint24"},{"name":"tickSpacing","type":"int24","internalType":"int24"},{"name":"hooks","type":"address","internalType":"contract IHooks"}]},{"name":"","type":"uint160","internalType":"uint160"},{"name":"","type":"int24","internalType":"int24"}],"outputs":[{"name":"","type":"bytes4","internalType":"bytes4"}],"stateMutability":"pure"},{"type":"function","name":"afterRemoveLiquidity","inputs":[{"name":"","type":"address","internalType":"address"},{"name":"","type":"tuple","internalType":"struct PoolKey","components":[{"name":"currency0","type":"address","internalType":"Currency"},{"name":"currency1","type":"address","internalType":"Currency"},{"name":"fee","type":"uint24","internalType":"uint24"},{"name":"tickSpacing","type":"int24","internalType":"int24"},{"name":"hooks","type":"address","internalType":"contract IHooks"}]},{"name":"","type":"tuple","internalType":"struct IPoolManager.ModifyLiquidityParams","components":[{"name":"tickLower","type":"int24","internalType":"int24"},{"name":"tickUpper","type":"int24","internalType":"int24"},{"name":"liquidityDelta","type":"int256","internalType":"int256"},{"name":"salt","type":"bytes32","internalType":"bytes32"}]},{"name":"","type":"int256","internalType":"BalanceDelta"},{"name":"","type":"int256","internalType":"BalanceDelta"},{"name":"","type":"bytes","internalType":"bytes"}],"outputs":[{"name":"","type":"bytes4","internalType":"bytes4"},{"name":"","type":"int256","internalType":"BalanceDelta"}],"stateMutability":"pure"},{"type":"function","name":"afterSwap","inputs":[{"name":"","type":"address","internalType":"address"},{"name":"key","type":"tuple","internalType":"struct PoolKey","components":[{"name":"currency0","type":"address","internalType":"Currency"},{"name":"currency1","type":"address","internalType":"Currency"},{"name":"fee","type":"uint24","internalType":"uint24"},{"name":"tickSpacing","type":"int24","internalType":"int24"},{"name":"hooks","type":"address","internalType":"contract IHooks"}]},{"name":"params","type":"tuple","internalType":"struct IPoolManager.SwapParams","components":[{"name":"zeroForOne","type":"bool","internalType":"bool"},{"name":"amountSpecified","type":"int256","internalType":"int256"},{"name":"sqrtPriceLimitX96","type":"uint160","internalType":"uint160"}]},{"name":"delta","type":"int256","internalType":"BalanceDelta"},{"name":"","type":"bytes","internalType":"bytes"}],"outputs":[{"name":"","type":"bytes4","internalType":"bytes4"},{"name":"","type":"int128","internalType":"int128"}],"stateMutability":"nonpayable"},{"type":"function","name":"beforeAddLiquidity","inputs":[{"name":"","type":"address","internalType":"address"},{"name":"","type":"tuple","internalType":"struct PoolKey","components":[{"name":"currency0","type":"address","internalType":"Currency"},{"name":"currency1","type":"address","internalType":"Currency"},{"name":"fee","type":"uint24","internalType":"uint24"},{"name":"tickSpacing","type":"int24","internalType":"int24"},{"name":"hooks","type":"address","internalType":"contract IHooks"}]},{"name":"","type":"tuple","internalType":"struct IPoolManager.ModifyLiquidityParams","components":[{"name":"tickLower","type":"int24","internalType":"int24"},{"name":"tickUpper","type":"int24","internalType":"int24"},{"name":"liquidityDelta","type":"int256","internalType":"int256"},{"name":"salt","type":"bytes32","internalType":"bytes32"}]},{"name":"","type":"bytes","internalType":"bytes"}],"outputs":[{"name":"","type":"bytes4","internalType":"bytes4"}],"stateMutability":"pure"},{"type":"function","name":"beforeDonate","inputs":[{"name":"","type":"address","internalType":"address"},{"name":"","type":"tuple","internalType":"struct PoolKey","components":[{"name":"currency0","type":"address","internalType":"Currency"},{"name":"currency1","type":"address","internalType":"Currency"},{"name":"fee","type":"uint24","internalType":"uint24"},{"name":"tickSpacing","type":"int24","internalType":"int24"},{"name":"hooks","type":"address","internalType":"contract IHooks"}]},{"name":"","type":"uint256","internalType":"uint256"},{"name":"","type":"uint256","internalType":"uint256"},{"name":"","type":"bytes","internalType":"bytes"}],"outputs":[{"name":"","type":"bytes4","internalType":"bytes4"}],"stateMutability":"pure"},{"type":"function","name":"beforeInitialize","inputs":[{"name":"","type":"address","internalType":"address"},{"name":"","type":"tuple","internalType":"struct PoolKey","components":[{"name":"currency0","type":"address","internalType":"Currency"},{"name":"currency1","type":"address","internalType":"Currency"},{"name":"fee","type":"uint24","internalType":"uint24"},{"name":"tickSpacing","type":"int24","internalType":"int24"},{"name":"hooks","type":"address","internalType":"contract IHooks"}]},{"name":"","type":"uint160","internalType":"uint160"}],"outputs":[{"name":"","type":"bytes4","internalType":"bytes4"}],"stateMutability":"pure"},{"type":"function","name":"beforeRemoveLiquidity","inputs":[{"name":"","type":"address","internalType":"address"},{"name":"","type":"tuple","internalType":"struct PoolKey","components":[{"name":"currency0","type":"address","internalType":"Currency"},{"name":"currency1","type":"address","internalType":"Currency"},{"name":"fee","type":"uint24","internalType":"uint24"},{"name":"tickSpacing","type":"int24","internalType":"int24"},{"name":"hooks","type":"address","internalType":"contract IHooks"}]},{"name":"","type":"tuple","internalType":"struct IPoolManager.ModifyLiquidityParams","components":[{"name":"tickLower","type":"int24","internalType":"int24"},{"name":"tickUpper","type":"int24","internalType":"int24"},{"name":"liquidityDelta","type":"int256","internalType":"int256"},{"name":"salt","type":"bytes32","internalType":"bytes32"}]},{"name":"","type":"bytes","internalType":"bytes"}],"outputs":[{"name":"","type":"bytes4","internalType":"bytes4"}],"stateMutability":"pure"},{"type":"function","name":"beforeSwap","inputs":[{"name":"","type":"address","internalType":"address"},{"name":"","type":"tuple","internalType":"struct PoolKey","components":[{"name":"currency0","type":"address","internalType":"Currency"},{"name":"currency1","type":"address","internalType":"Currency"},{"name":"fee","type":"uint24","internalType":"uint24"},{"name":"tickSpacing","type":"int24","internalType":"int24"},{"name":"hooks","type":"address","internalType":"contract IHooks"}]},{"name":"","type":"tuple","internalType":"struct IPoolManager.SwapParams","components":[{"name":"zeroForOne","type":"bool","internalType":"bool"},{"name":"amountSpecified","type":"int256","internalType":"int256"},{"name":"sqrtPriceLimitX96","type":"uint160","internalType":"uint160"}]},{"name":"","type":"bytes","internalType":"bytes"}],"outputs":[{"name":"","type":"bytes4","internalType":"bytes4"},{"name":"","type":"int256","internalType":"BeforeSwapDelta"},{"name":"","type":"uint24","internalType":"uint24"}],"stateMutability":"pure"},{"type":"error","name":"OnlyPoolManager","inputs":[]},{"type":"error","name":"ZeroAddress","inputs":[]}],"bytecode":{"object":"0x60e060405234801561000f575f80fd5b50604051611845380380611845833981810160405281019061003191906106fe565b5f73ffffffffffffffffffffffffffffffffffffffff168373ffffffffffffffffffffffffffffffffffffffff1603610096576040517fd92e233d00000000000000000000000000000000000000000000000000000000815260040160405180910390fd5b5f73ffffffffffffffffffffffffffffffffffffffff168273ffffffffffffffffffffffffffffffffffffffff16036100fb576040517fd92e233d00000000000000000000000000000000000000000000000000000000815260040160405180910390fd5b5f73ffffffffffffffffffffffffffffffffffffffff168173ffffffffffffffffffffffffffffffffffffffff1603610160576040517fd92e233d00000000000000000000000000000000000000000000000000000000815260040160405180910390fd5b8273ffffffffffffffffffffffffffffffffffffffff1660808173ffffffffffffffffffffffffffffffffffffffff16815250508173ffffffffffffffffffffffffffffffffffffffff1660a08173ffffffffffffffffffffffffffffffffffffffff16815250508073ffffffffffffffffffffffffffffffffffffffff1660c08173ffffffffffffffffffffffffffffffffffffffff168152505061028730604051806101c001604052805f151581526020015f151581526020015f151581526020015f151581526020015f151581526020015f151581526020015f151581526020016001151581526020015f151581526020015f151581526020015f151581526020016001151581526020015f151581526020015f151581525061028f60201b60201c565b50505061074e565b6102ba6120008373ffffffffffffffffffffffffffffffffffffffff1661061e60201b90919060201c565b1515815f0151151514158061030157506102f56110008373ffffffffffffffffffffffffffffffffffffffff1661061e60201b90919060201c565b15158160200151151514155b8061033e57506103326108008373ffffffffffffffffffffffffffffffffffffffff1661061e60201b90919060201c565b15158160400151151514155b8061037b575061036f6104008373ffffffffffffffffffffffffffffffffffffffff1661061e60201b90919060201c565b15158160600151151514155b806103b857506103ac6102008373ffffffffffffffffffffffffffffffffffffffff1661061e60201b90919060201c565b15158160800151151514155b806103f557506103e96101008373ffffffffffffffffffffffffffffffffffffffff1661061e60201b90919060201c565b15158160a00151151514155b80610431575061042560808373ffffffffffffffffffffffffffffffffffffffff1661061e60201b90919060201c565b15158160c00151151514155b8061046d575061046160408373ffffffffffffffffffffffffffffffffffffffff1661061e60201b90919060201c565b15158160e00151151514155b806104aa575061049d60208373ffffffffffffffffffffffffffffffffffffffff1661061e60201b90919060201c565b1515816101000151151514155b806104e757506104da60108373ffffffffffffffffffffffffffffffffffffffff1661061e60201b90919060201c565b1515816101200151151514155b80610524575061051760088373ffffffffffffffffffffffffffffffffffffffff1661061e60201b90919060201c565b1515816101400151151514155b80610561575061055460048373ffffffffffffffffffffffffffffffffffffffff1661061e60201b90919060201c565b1515816101600151151514155b8061059e575061059160028373ffffffffffffffffffffffffffffffffffffffff1661061e60201b90919060201c565b1515816101800151151514155b806105db57506105ce60018373ffffffffffffffffffffffffffffffffffffffff1661061e60201b90919060201c565b1515816101a00151151514155b1561061a576106198263e65af6a060e01b7bffffffffffffffffffffffffffffffffffffffffffffffffffffffff191661064360201b90919060201c565b5b5050565b5f8082841673ffffffffffffffffffffffffffffffffffffffff161415905092915050565b815f5273ffffffffffffffffffffffffffffffffffffffff811660045260245ffd5b5f80fd5b5f73ffffffffffffffffffffffffffffffffffffffff82169050919050565b5f61069282610669565b9050919050565b5f6106a382610688565b9050919050565b6106b381610699565b81146106bd575f80fd5b50565b5f815190506106ce816106aa565b92915050565b6106dd81610688565b81146106e7575f80fd5b50565b5f815190506106f8816106d4565b92915050565b5f805f6060848603121561071557610714610665565b5b5f610722868287016106c0565b9350506020610733868287016106ea565b9250506040610744868287016106ea565b9150509250925092565b60805160a05160c0516110b861078d5f395f81816103b501526105ed01525f61040701525f81816103910152818161044801526105b001526110b85ff3fe608060405234801561000f575f80fd5b50600436106100e8575f3560e01c806389a302711161008a578063b6a8b0fa11610064578063b6a8b0fa1461029b578063bf333f2c146102cb578063dc98354e146102e9578063e1b4af6914610319576100e8565b806389a302711461021b5780639f063efc14610239578063b47b2fb11461026a576100e8565b806362308e85116100c657806362308e851461017e5780636352cf241461019c5780636c2bbe7e146101ba5780636fe7e6eb146101eb576100e8565b806321d0ee70146100ec578063259982e51461011c578063575e24b41461014c575b5f80fd5b610106600480360381019061010191906107d2565b610349565b6040516101139190610892565b60405180910390f35b610136600480360381019061013191906107d2565b61035d565b6040516101439190610892565b60405180910390f35b610166600480360381019061016191906108c9565b610371565b604051610175939291906109ae565b60405180910390f35b61018661038f565b6040516101939190610a35565b60405180910390f35b6101a46103b3565b6040516101b19190610a5d565b60405180910390f35b6101d460048036038101906101cf9190610aa0565b6103d7565b6040516101e2929190610b5d565b60405180910390f35b61020560048036038101906102009190610be4565b6103f2565b6040516102129190610892565b60405180910390f35b610223610405565b6040516102309190610a5d565b60405180910390f35b610253600480360381019061024e9190610aa0565b610429565b604051610261929190610b5d565b60405180910390f35b610284600480360381019061027f9190610c49565b610444565b604051610292929190610cfd565b60405180910390f35b6102b560048036038101906102b09190610d57565b610676565b6040516102c29190610892565b60405180910390f35b6102d361068b565b6040516102e09190610dfe565b60405180910390f35b61030360048036038101906102fe9190610e17565b610690565b6040516103109190610892565b60405180910390f35b610333600480360381019061032e9190610d57565b6106a2565b6040516103409190610892565b60405180910390f35b5f6321d0ee7060e01b905095945050505050565b5f63259982e560e01b905095945050505050565b5f805f63575e24b460e01b5f80925092509250955095509592505050565b7f000000000000000000000000000000000000000000000000000000000000000081565b7f000000000000000000000000000000000000000000000000000000000000000081565b5f80636c2bbe7e60e01b5f9150915097509795505050505050565b5f636fe7e6eb60e01b9050949350505050565b7f000000000000000000000000000000000000000000000000000000000000000081565b5f80639f063efc60e01b5f9150915097509795505050505050565b5f807f000000000000000000000000000000000000000000000000000000000000000073ffffffffffffffffffffffffffffffffffffffff163373ffffffffffffffffffffffffffffffffffffffff16146104cb576040517ff655705d00000000000000000000000000000000000000000000000000000000815260040160405180910390fd5b5f8087602001351290505f875f0160208101906104e89190610e9c565b15158215151490505f81610504576104ff886106b7565b61050e565b61050d886106c3565b5b90505f81600f0b1361052f5763b47b2fb160e01b5f9450945050505061066b565b5f6127106064836105409190610f0f565b61054a9190610f78565b90505f816fffffffffffffffffffffffffffffffff160361057b5763b47b2fb160e01b5f955095505050505061066b565b5f83610598578b5f0160208101906105939190610fd2565b6105ac565b8b60200160208101906105ab9190610fd2565b5b90507f000000000000000000000000000000000000000000000000000000000000000073ffffffffffffffffffffffffffffffffffffffff16630b0d9c09827f0000000000000000000000000000000000000000000000000000000000000000856040518463ffffffff1660e01b815260040161062b9392919061104d565b5f604051808303815f87803b158015610642575f80fd5b505af1158015610654573d5f803e3d5ffd5b5050505063b47b2fb160e01b829650965050505050505b965096945050505050565b5f63b6a8b0fa60e01b90509695505050505050565b606481565b5f63dc98354e60e01b90509392505050565b5f63e1b4af6960e01b90509695505050505050565b5f8160801d9050919050565b5f81600f0b9050919050565b5f80fd5b5f80fd5b5f73ffffffffffffffffffffffffffffffffffffffff82169050919050565b5f610700826106d7565b9050919050565b610710816106f6565b811461071a575f80fd5b50565b5f8135905061072b81610707565b92915050565b5f80fd5b5f60a0828403121561074a57610749610731565b5b81905092915050565b5f6080828403121561076857610767610731565b5b81905092915050565b5f80fd5b5f80fd5b5f80fd5b5f8083601f84011261079257610791610771565b5b8235905067ffffffffffffffff8111156107af576107ae610775565b5b6020830191508360018202830111156107cb576107ca610779565b5b9250929050565b5f805f805f61016086880312156107ec576107eb6106cf565b5b5f6107f98882890161071d565b955050602061080a88828901610735565b94505060c061081b88828901610753565b93505061014086013567ffffffffffffffff81111561083d5761083c6106d3565b5b6108498882890161077d565b92509250509295509295909350565b5f7fffffffff0000000000000000000000000000000000000000000000000000000082169050919050565b61088c81610858565b82525050565b5f6020820190506108a55f830184610883565b92915050565b5f606082840312156108c0576108bf610731565b5b81905092915050565b5f805f805f61014086880312156108e3576108e26106cf565b5b5f6108f08882890161071d565b955050602061090188828901610735565b94505060c0610912888289016108ab565b93505061012086013567ffffffffffffffff811115610934576109336106d3565b5b6109408882890161077d565b92509250509295509295909350565b5f819050919050565b5f819050919050565b5f61097b6109766109718461094f565b610958565b61094f565b9050919050565b61098b81610961565b82525050565b5f62ffffff82169050919050565b6109a881610991565b82525050565b5f6060820190506109c15f830186610883565b6109ce6020830185610982565b6109db604083018461099f565b949350505050565b5f6109fd6109f86109f3846106d7565b610958565b6106d7565b9050919050565b5f610a0e826109e3565b9050919050565b5f610a1f82610a04565b9050919050565b610a2f81610a15565b82525050565b5f602082019050610a485f830184610a26565b92915050565b610a57816106f6565b82525050565b5f602082019050610a705f830184610a4e565b92915050565b610a7f8161094f565b8114610a89575f80fd5b50565b5f81359050610a9a81610a76565b92915050565b5f805f805f805f6101a0888a031215610abc57610abb6106cf565b5b5f610ac98a828b0161071d565b9750506020610ada8a828b01610735565b96505060c0610aeb8a828b01610753565b955050610140610afd8a828b01610a8c565b945050610160610b0f8a828b01610a8c565b93505061018088013567ffffffffffffffff811115610b3157610b306106d3565b5b610b3d8a828b0161077d565b925092505092959891949750929550565b610b5781610961565b82525050565b5f604082019050610b705f830185610883565b610b7d6020830184610b4e565b9392505050565b610b8d816106d7565b8114610b97575f80fd5b50565b5f81359050610ba881610b84565b92915050565b5f8160020b9050919050565b610bc381610bae565b8114610bcd575f80fd5b50565b5f81359050610bde81610bba565b92915050565b5f805f806101008587031215610bfd57610bfc6106cf565b5b5f610c0a8782880161071d565b9450506020610c1b87828801610735565b93505060c0610c2c87828801610b9a565b92505060e0610c3d87828801610bd0565b91505092959194509250565b5f805f805f806101608789031215610c6457610c636106cf565b5b5f610c7189828a0161071d565b9650506020610c8289828a01610735565b95505060c0610c9389828a016108ab565b945050610120610ca589828a01610a8c565b93505061014087013567ffffffffffffffff811115610cc757610cc66106d3565b5b610cd389828a0161077d565b92509250509295509295509295565b5f81600f0b9050919050565b610cf781610ce2565b82525050565b5f604082019050610d105f830185610883565b610d1d6020830184610cee565b9392505050565b5f819050919050565b610d3681610d24565b8114610d40575f80fd5b50565b5f81359050610d5181610d2d565b92915050565b5f805f805f806101208789031215610d7257610d716106cf565b5b5f610d7f89828a0161071d565b9650506020610d9089828a01610735565b95505060c0610da189828a01610d43565b94505060e0610db289828a01610d43565b93505061010087013567ffffffffffffffff811115610dd457610dd36106d3565b5b610de089828a0161077d565b92509250509295509295509295565b610df881610d24565b82525050565b5f602082019050610e115f830184610def565b92915050565b5f805f60e08486031215610e2e57610e2d6106cf565b5b5f610e3b8682870161071d565b9350506020610e4c86828701610735565b92505060c0610e5d86828701610b9a565b9150509250925092565b5f8115159050919050565b610e7b81610e67565b8114610e85575f80fd5b50565b5f81359050610e9681610e72565b92915050565b5f60208284031215610eb157610eb06106cf565b5b5f610ebe84828501610e88565b91505092915050565b5f6fffffffffffffffffffffffffffffffff82169050919050565b7f4e487b71000000000000000000000000000000000000000000000000000000005f52601160045260245ffd5b5f610f1982610ec7565b9150610f2483610ec7565b9250828202610f3281610ec7565b9150808214610f4457610f43610ee2565b5b5092915050565b7f4e487b71000000000000000000000000000000000000000000000000000000005f52601260045260245ffd5b5f610f8282610ec7565b9150610f8d83610ec7565b925082610f9d57610f9c610f4b565b5b828204905092915050565b610fb1816106f6565b8114610fbb575f80fd5b50565b5f81359050610fcc81610fa8565b92915050565b5f60208284031215610fe757610fe66106cf565b5b5f610ff484828501610fbe565b91505092915050565b5f61100782610a04565b9050919050565b61101781610ffd565b82525050565b5f61103761103261102d84610ec7565b610958565b610d24565b9050919050565b6110478161101d565b82525050565b5f6060820190506110605f83018661100e565b61106d6020830185610a4e565b61107a604083018461103e565b94935050505056fea2646970667358221220d4ef4055106d5d0ccb0958f79da1bd897cb44e4f0747d30abeea789f25b379fc64736f6c634300081a0033","linkReferences":{}},"methodIdentifiers":{"FEE_BPS()":"bf333f2c","POOL_MANAGER()":"62308e85","PROTOCOL_TREASURY()":"6352cf24","USDC()":"89a30271","afterAddLiquidity(address,(address,address,uint24,int24,address),(int24,int24,int256,bytes32),int256,int256,bytes)":"9f063efc","afterDonate(address,(address,address,uint24,int24,address),uint256,uint256,bytes)":"e1b4af69","afterInitialize(address,(address,address,uint24,int24,address),uint160,int24)":"6fe7e6eb","afterRemoveLiquidity(address,(address,address,uint24,int24,address),(int24,int24,int256,bytes32),int256,int256,bytes)":"6c2bbe7e","afterSwap(address,(address,address,uint24,int24,address),(bool,int256,uint160),int256,bytes)":"b47b2fb1","beforeAddLiquidity(address,(address,address,uint24,int24,address),(int24,int24,int256,bytes32),bytes)":"259982e5","beforeDonate(address,(address,address,uint24,int24,address),uint256,uint256,bytes)":"b6a8b0fa","beforeInitialize(address,(address,address,uint24,int24,address),uint160)":"dc98354e","beforeRemoveLiquidity(address,(address,address,uint24,int24,address),(int24,int24,int256,bytes32),bytes)":"21d0ee70","beforeSwap(address,(address,address,uint24,int24,address),(bool,int256,uint160),bytes)":"575e24b4"},"id":96}